:020000040800F2
:1000000000000220611602089516020897160208E1
:10001000991602089B1602089D16020800000000AF
:10002000000000000000000000000000093500088A
:10003000A116020800000000F93600084937000840
:10004000A9160208AB160208AD160208AF16020880
:10005000B1160208B3160208B51602085D8E000834
:10006000B9160208BB160208BD160208BF16020820
:10007000C1160208C3160208C5160208C7160208F0
:10008000C9160208CB160208CD160208CF160208C0
:10009000D1160208D3160208D5160208AD8E000844
:1000A000D9160208DB160208DD160208DF16020860
:1000B000E1160208E3160208E5160208E716020830
:1000C000E9160208EB160208ED160208EF16020800
:1000D000F11602082D8D0008C58D0008F7160208DC
:1000E000E18E0008898F0008FD160208FF1602083D
:1000F000011702080317020805170208071702086C
:10010000091702080B1702080D1702080F1702083B
:10011000111702081317020815170208171702080B
:10012000191702081B1702081D1702081F170208DB
:1001300021170208231702082517020827170208AB
:10014000291702082B1702082D1702082F1702087B
:10015000311702083317020835170208371702084B
:10016000391702083B1702083D1702083F1702081B
:1001700041170208431702084517020847170208EB
:10018000491702084B17020810B5054C237833B9FC
:10019000044B13B10448AFF300800123237010BD5A
:1001A000EC010020000000005C00030808B5064BCD
:1001B0001BB106480649AFF300800648036813B137
:1001C000054B03B1984708BD000000005C00030820
:1001D000F0010020EC0100200000000016202CA1FE
:1001E000ABBE2B488168C268002900D08D46002A2A
:1001F00001D002F5807A00218B460F462548264A19
:10020000121A29F0D7FC27F029FC152024A1ABBE37
:100210002349002001B40B780131002B15D0202B8D
:10022000F9D0222B01D0272B01D11A4601E0202240
:10023000013902B401300B780131002B05D09A420C
:10024000F9D100224B1E1A70E5E76946024692007A
:100250006A446B469A4206D9043A14681D681560D0
:100260001C600433F6E76C460725AC43A5460446FC
:100270000D46002009490022002329F033F929F016
:10028000D5FB2046294614F0B3F829F051F900BFF8
:1002900004000020EC010020309A0020D9960208CA
:1002A00014000020FF00000080B483B000AF78602D
:1002B0000B46FB707B68FA785A7507F10C07BD4650
:1002C00080BC704780B489B000AFF860B9607A60D4
:1002D0003B60BA687B689A420ADA3A68BB689A421D
:1002E00017DABB68FB613B68BB60FB693B6010E0F1
:1002F0007A683B689A4206DABB68BB617B68BB6080
:10030000BB697B6005E0BB687B613B68BB607B6968
:100310003B603A687B689A4205DA7B683B613B68E0
:100320007B603B693B60FB68BA689A61FB683A682E
:10033000DA61FB687A681A623A68BB68D31A002BE4
:10034000B8BF5B4248F68902C8F6880282FB0312F6
:10035000D2184FEA22124FEAE373D21AFB685A62AC
:1003600007F12407BD4680BC704700BF80B483B04E
:1003700000AF78600B46FB707B681B68184607F17E
:100380000C07BD4680BC704780B582B000AF786076
:100390000B46FB707B685B7D002B57D17B681B7D18
:1003A000032B53D801A252F823F000BFBD0300086D
:1003B000E10300080504000829040008FB78002B6D
:1003C00002D04FF0010301E04FF000034FF48060D2
:1003D000C4F200004FF000011A4608F0BDF935E004
:1003E000FB78002B02D04FF0010301E04FF0000337
:1003F0004FF48060C4F200004FF004011A4608F088
:10040000ABF923E0FB78002B02D04FF0010301E0B1
:100410004FF000034FF48060C4F200004FF0080179
:100420001A4608F099F911E0FB78002B02D04FF042
:10043000010301E04FF000034FF48060C4F20000BC
:100440004FF00C011A4608F087F900BF07F10807C2
:10045000BD4680BD80B584B000AF786039607B68F0
:10046000DA693B689A4203DC7B68DB693B6007E042
:100470007B689A693B689A4202DB7B689B693B60B8
:100480007B683A681A607B685B7D002B32D17B68A1
:100490001B7D032B2ED801A252F823F0AD040008D7
:1004A000BF040008D1040008E30400083B684FF4CF
:1004B0008060C4F20000194608F016F91AE03B68A3
:1004C0004FF48060C4F20000194608F01BF911E0F7
:1004D0003B684FF48060C4F20000194608F020F930
:1004E00008E03B684FF48060C4F20000194608F051
:1004F00025F900BF4FF0FF33FB607B681A687B680B
:100500009B69D31A83EAE372A2EBE3727B681968F2
:100510007B681B6ACB1A002BB8BF5B429A421ADA7F
:100520007B681A687B689B69D31A83EAE372A2EB43
:10053000E3727B6819687B68DB69CB1A002BB8BF54
:100540005B429A4207DA7B689B69FB607B684FF0ED
:1005500000025A6034E07B681A687B681B6AD31A11
:1005600083EAE372A2EBE3727B6819687B689B699C
:10057000CB1A002BB8BF5B429A421ADA7B681A6822
:100580007B681B6AD31A83EAE372A2EBE3727B688F
:1005900019687B68DB69CB1A002BB8BF5B429A42B3
:1005A00007DA7B681B6AFB607B684FF001025A60C8
:1005B00006E07B68DB69FB607B684FF002025A60F3
:1005C00007F11007BD4680BD80B582B000AF7860EE
:1005D00039603B68B3F1FF3F0ED17B685B68012B4C
:1005E00007D07B685B68022B0CBF00230123DBB2C2
:1005F00001E04FF002033B6078684FF00101FFF724
:10060000C3FE3B68002B06D17B689B69786819465E
:10061000FFF720FF0FE03B68012B06D17B681B6AC8
:1006200078681946FFF716FF05E07B68DB69786894
:100630001946FFF70FFF40F61D1003F0FFFE786824
:100640004FF00001FFF7A0FE07F10807BD4680BD8F
:1006500080B483B000AF78607B685B68184607F1B0
:100660000C07BD4680BC704780B483B000AF786093
:100670000B46FB707B68FA781A7507F10C07BD46CC
:1006800080BC704780B58AB000AF4FF002004FF0D9
:10069000010106F095FD4FF033033B624FF002037A
:1006A00087F824304FF0000387F826304FF002031C
:1006B00087F825304FF0000387F8273007F1200333
:1006C0004FF48060C4F20200194606F0E7FA4FF4D6
:1006D0008060C4F202004FF000014FF0020206F009
:1006E0009BFB4FF48060C4F202004FF001014FF019
:1006F000020206F091FB4FF48060C4F202004FF05A
:1007000004014FF0020206F087FB4FF48060C4F250
:1007100002004FF005014FF0020206F07DFB4FF0A2
:1007200002004FF0010106F075FD44F62063BB6145
:100730004FF05403BB824FF48073BB834FF0000330
:10074000FB8207F114034FF48060C4F200001946E5
:1007500007F004FD4FF060033B804FF001037B8006
:1007600040F2DC53BB604FF00003BB813B464FF4CB
:100770008060C4F20000194607F0A4FD3B464FF428
:100780008060C4F20000194607F01AFE3B464FF4A1
:100790008060C4F20000194607F0A6FE3B464FF405
:1007A0008060C4F20000194607F02EFF4FF480600D
:1007B000C4F200004FF000014FF0000207F0CCFF40
:1007C0004FF48060C4F200004FF004014FF00002CB
:1007D00007F0C2FF4FF48060C4F200004FF0080140
:1007E0004FF0000207F0B8FF4FF48060C4F2000041
:1007F0004FF00C014FF0000207F0AEFF4FF48060A5
:10080000C4F200004FF0010107F03CFD01E021F0CF
:1008100065F907F12807BD4680BD00BF80B582B0ED
:1008200000AF786039607B6803F1080318463968C7
:100830004FF00B0229F01EFB7B684FF00002DA74C8
:1008400007F10807BD4680BD80B483B000AF786073
:100850007B6803F10803184607F10C07BD4680BC0E
:10086000704700BF90B585B000AF78604FF00003CF
:10087000FB604FF00003BB600CE07A68BB68D318E4
:1008800003F108031B78FA68D318FB60BB6803F117
:100890000103BB60BC687B6803F10803184629F0BC
:1008A000C8FA03469C422CBF00230123DBB2002B75
:1008B000E3D17B685B7DFA68D318FB607B681B7DA6
:1008C000FA68D318FB607B689B69FA68D318FB60F1
:1008D000FB68184607F11407BD4690BD90B585B07A
:1008E00000AF786013460A46FA703B807B684FF091
:1008F00000021A707B68FA789A757B683A889A8247
:100900004FF0080008F0D6F903461C46204640F296
:1009100077114FF0040205F029FCFC607B68FA684F
:100920005A6004E0204608F0E5F921F0D7F807F115
:100930001407BD4690BD00BF80B582B000AF78609F
:1009400039607B6803F10803184639684FF00B02E1
:1009500029F090FA7B684FF00002DA7407F108077B
:10096000BD4680BD80B483B000AF78607B6803F182
:100970000803184607F10C07BD4680BC704700BF4E
:1009800080B483B000AF78607B681B78184607F1AD
:100990000C07BD4680BC704780B483B000AF786060
:1009A0007B685B78184607F10C07BD4680BC704732
:1009B00080B582B000AF78600B46FB707B681B7817
:1009C000002B14D102F05AFE04F054FF7B685868E3
:1009D0007B68997D7B689A8AFB7805F0DBFB7B68F6
:1009E000FA785A7004F032FF02F05EFE00BF07F1A1
:1009F0000807BD4680BD00BF90B585B000AF7860E8
:100A00004FF00003FB604FF00003BB600CE07A681E
:100A1000BB68D31803F108031B78FA68D318FB608E
:100A2000BB6803F10103BB60BC687B6803F108038A
:100A3000184629F0FEF903469C422CBF00230123EF
:100A4000DBB2002BE3D17B689B7DFA68D318FB6097
:100A50007B689B8AFA68D318FB607B689B69FA689D
:100A6000D318FB60FB68184607F11407BD4690BD1C
:100A700080B483B000AF78607B681B7A032B01D110
:100A8000084B09E07B681B7A042B01D1064B03E07D
:100A90004BF28433C0F60203184607F10C07BD463B
:100AA00080BC70478CB3020894B3020880B58CB048
:100AB00000AF78607B684FF000021A607B684FF0EF
:100AC0000002C4F22C225A6005F058FC4FF48070EA
:100AD0004FF0010106F0C8FB4FF00003BB604FF47C
:100AE0004033FB604FF000033B614FF000037B613C
:100AF00007F10803184605F0ADFC4FF00003BB6199
:100B00004FF000033B774FF001037B774FF000037A
:100B10003B624FF000037B624FF00003BB624FF07B
:100B2000010387F82C3007F118034FF40050C4F28A
:100B30000100194605F032FC4FF40050C4F20100E8
:100B40004FF010014FF001024FF0060305F0F2FCE8
:100B50004FF0010005F0C8FC4FF40050C4F2010052
:100B60004FF0010105F0A4FC01E020F0B7FF07F110
:100B70003007BD4680BD00BF80B582B000AF786051
:100B800002F07CFD4FF40050C4F2010005F0B0FD0E
:100B900000BF4FF40050C4F201004FF0020105F015
:100BA000C5FD0346002B14BF00230123DBB2002B3D
:100BB000EFD14FF40050C4F2010005F0A9FD034647
:100BC00007EE103AF8EE477A7B68C3ED007A7B684F
:100BD00093ED007ADFED367A67EE277A7B68C3ED16
:100BE000007A7B6893ED007ADFED327AC7EE277AE0
:100BF0007B68C3ED007A7B6893ED007ADFED2E7A97
:100C0000C7EE277A7B68C3ED007A7B681B681846BD
:100C100027F00EFA02460B461046194620A3D3E9E8
:100C2000002327F0A5F802460B461046194627F088
:100C300065FC02467B681A607B681B68184627F0D3
:100C4000F7F902460B461046194617A3D3E90023CD
:100C500027F06CFB02460B461046194627F04EFC67
:100C600002467B681A607B6893ED007AF3EE097A9E
:100C700077EE277A7B68C3ED007A7B6893ED007A84
:100C80007B68D3ED017A77EE677A7B68C3ED007AF3
:100C900002F00AFD07F10807BD4680BDAFF30080F2
:100CA00052B81E85EB51E83F7B14AE47E17A643FB2
:100CB00000404E4500F07F4500007A44AFF30080CD
:100CC00080B586B000AF78607868FFF755FF7B6825
:100CD0001B687B617868FFF74FFF7B681B683B618F
:100CE0007868FFF749FF7B681B68FB607868FFF74F
:100CF00043FF7B681B68BB6097ED057AD7ED047AEC
:100D000037EE277AD7ED037A37EE277AD7ED027AD6
:100D100037EE277AF1EE007AC7EE277A7B68C3EDCB
:100D2000007A7B681B6807EE903AB0EE670A07F11D
:100D30001807BD4680BD00BF80B483B000AF7860A7
:100D40007B684FF000029A607B68184607F10C0739
:100D5000BD4680BC704700BF80B582B000AF7860F0
:100D60007B689B68002B08D07B689B6879687A68F1
:100D7000084611464FF0030298477B68184607F172
:100D80000807BD4680BD00BF80B483B000AF786067
:100D90007B689B68002B14BF00230123DBB218463D
:100DA00007F10C07BD4680BC704700BF80B483B01C
:100DB00000AF78607B684FF000021A807B684FF0CC
:100DC00000025A807B684FF001021A717B68184656
:100DD00007F10C07BD4680BC704700BF80B584B0EA
:100DE00000AFF8607B600B467B8113463B81FB685C
:100DF0001846FFF7DBFFFB684FF001021A71FA6833
:100E000040F21C13C2F200031362FB68BA8B9A848F
:100E1000FB683A8BDA847A893B89F86811461A466E
:100E200000F05AF8F868796800F02AF8FB684FF08B
:100E300001025A71FB684FF000021A71F86800F065
:100E4000B3F8FB68184607F11007BD4680BD00BF28
:100E500080B582B000AF78600B46FB70786800F018
:100E60006FF87B684FF001025A717B68FA781A714B
:100E7000786800F099F807F10807BD4680BD00BF0B
:100E800090B583B000AF78603960786800F058F8AA
:100E90007B684FF001025A717B6803F10603184624
:100EA00039684FF0130228F0E5FF7B681B6A1B7856
:100EB0001C467B6803F10603184628F0BAFF034678
:100EC00003FB04F31A467B68DA61786800F06CF87B
:100ED00007F10C07BD4690BD80B582B000AF7860C9
:100EE00013460A467A803B80786800F029F87B68D0
:100EF0004FF001025A717B687A881A807B683A88C1
:100F00005A80786800F050F807F10807BD4680BDA8
:100F100080B483B000AF78607B681B88184607F107
:100F20000C07BD4680BC704780B483B000AF7860CA
:100F30007B685B88184607F10C07BD4680BC70478C
:100F400090B585B002AF78607B681B79002B17D114
:100F50007B6818887B6859887B681A887B68DB699E
:100F60009BB2D3189AB27B685C887B681B6A5B78FB
:100F7000E3189BB27C68A48C009401F05DFF00E054
:100F800000BF07F10C07BD4690BD00BF80B483B021
:100F900000AF78607B684FF001025A7107F10C07CF
:100FA000BD4680BC704700BFB0B584B002AF78606A
:100FB0007B681B79002B18D17B685B7983F0010378
:100FC000DBB2002B11D17B6818887B6859887B685D
:100FD00003F106027B681B6A7C68E58C7C68A48C44
:100FE0000095019401F000FD00E000BF07F1080743
:100FF000BD46B0BD80B582B000AF78607B68184652
:10100000FFF7AAFE7B68184607F10807BD4680BDBA
:1010100080B586B002AFF8607B600B467B811346DB
:101020003B81F9687A893B89388B0090B88B0190B5
:10103000084611461A467B68FFF7D0FEFB6803F1AD
:101040002803184600F07AFDFB6803F148031846B0
:1010500000F086FDFB684FF0000283F83C20FB683F
:101060003A8BDA877B89A3F103039AB2FB68A3F872
:1010700040203B89A3F103039AB2FB68A3F8422006
:10108000FB68DB699AB27B89D3189BB203F1030337
:101090009AB2FB68A3F84420FB681B6A5B781A4687
:1010A0003B89D3189BB203F103039AB2FB68A3F800
:1010B0004620F86800F016F8FB680EE0FB6803F1C4
:1010C0004803184600F05AFDFFE7FB6803F12803C8
:1010D0001846FFF78FFF20F001FD184607F11007B3
:1010E000BD4680BD90B585B002AF78607B6893F84F
:1010F0003C30002B11D07B68B3F840007B68B3F81C
:1011000042107B68B3F844207B68B3F846307C68B3
:10111000E48F009401F064FE10E07B68B3F84000B7
:101120007B68B3F842107B68B3F844207B68B3F85F
:1011300046307C68A48C009401F052FE07F10C0745
:10114000BD4690BD80B582B000AF78600B46FB70A5
:101150007B68FA7883F83C207868FFF7C3FF07F1D3
:101160000807BD4680BD00BF80B582B000AF786083
:101170007B681846FFF718FF7868FFF7B3FF07F1A1
:101180000807BD4680BD00BF80B582B000AF786063
:1011900039607B6803F128031846396800F016FDB2
:1011A00007F10807BD4680BD80B582B000AF78600A
:1011B0007B6803F12803184600F028FD0346002B46
:1011C00005D07B6803F12803184600F031FD07F1D4
:1011D0000807BD4680BD00BF80B582B000AF786013
:1011E0007B6803F14803184600F0C8FC7B6803F1F4
:1011F00028031846FFF7FEFE7B68184607F108072C
:10120000BD4680BD80B586B002AFF8607B600B46FE
:101210007B8113463B81F9687B8903F11E039AB2F7
:101220003B89388B0090B88B0190084611461A46CE
:101230007B68FFF7EDFEFB684FF6E072A3F85C20D9
:10124000FB684FF00802A3F85A20FB68B3F85A3045
:101250004FEA53039AB27B89D3189BB203F106037A
:101260009AB2FB68A3F85620FB68B3F85A304FEAED
:1012700053039AB23B89D3189BB203F105039AB288
:10128000FB68A3F858207B89A3F103039AB2FB689B
:10129000A3F840203B89A3F103039AB2FB68A3F8AB
:1012A0004220FB68DB699AB27B89D3189BB203F1B9
:1012B00021039AB2FB68A3F84420F86800F00EF806
:1012C000FB6805E0FB681846FFF786FF20F006FC88
:1012D000184607F11007BD4680BD00BF80B582B03B
:1012E00000AF78607B6893F85430002B14D07B6893
:1012F000B3F8563098B27B68B3F8583099B27B682F
:10130000B3F85A309AB27B68B3F85C3000B209B2D5
:1013100012B201F093FE25E07B68B3F8563098B224
:101320007B68B3F8583099B27B68B3F85A309AB2F8
:101330007B689B8C00B209B212B201F07FFE7B6821
:10134000B3F8563098B27B68B3F8583099B27B68DE
:10135000B3F85A309AB27B68DB8C00B209B212B291
:1013600001F086FD07F10807BD4680BD80B582B05B
:1013700000AF78607868FFF7B1FF7B681846FFF729
:10138000F3FE07F10807BD4680BD00BF80B582B0FF
:1013900000AF78600B46FB707B68FA7883F85420C6
:1013A0007868FFF79BFF07F10807BD4680BD00BFC7
:1013B00080B586B002AFF8607B600B467B81134638
:1013C0003B81F9687A893B89388B0090B88B019012
:1013D000084611461A467B68FFF71AFEFB6840F282
:1013E0001D52A3F86420FB684FF000025A65FB68A9
:1013F0004FF064029A65FB684FF00002DA65FB6803
:101400004FF08B021A66FB681B6A5B781A463B89B1
:10141000D3189BB203F10F039AB2FB68A3F84620DE
:10142000FB681B6E9AB27B89D3189BB203F106034B
:101430009AB2FB68A3F84420F86800F029F8FB682A
:1014400005E0FB681846FFF7C7FE20F047FB18468B
:1014500007F11007BD4680BD80B485B000AFF860CD
:10146000B9607A603B60FA68BB68D31AB9693A68B8
:101470008A1A02FB03F27968BB68CB1A92FBF3F27B
:101480003B68D318184607F11407BD4680BC704767
:10149000B0B586B002AF78607B68D86D7B68596D57
:1014A0007B689A6D7B681B8803F103037C68248842
:1014B00025467C68246E2C190094FFF7CDFFF86058
:1014C0007B681B8803F1030398B27B685B8803F198
:1014D000170399B27B681A887B681B6E9BB2D3187E
:1014E0009AB27B685B8803F11C039BB24FF0000447
:1014F000009401F0A1FC7B6818887B685B8803F18D
:10150000140399B27B681A887B681B6E9BB2D31850
:101510009BB203F103039AB27B685B8803F11E035D
:101520009BB27C68E48C009401F05AFC7B681B88B9
:1015300003F1030398B27B685B8803F1170399B248
:10154000FB689AB27B685B8803F11C039BB27C68E2
:10155000B4F86440009401F06FFC07F11007BD4639
:10156000B0BD00BF80B582B000AF786039607B68E5
:101570003A68DA657868FFF78BFF07F10807BD4620
:1015800080BD00BF80B485B000AFF860B9607A60FC
:10159000FB68BA685A65FB687A689A6507F11407B0
:1015A000BD4680BC704700BF80B582B000AF786098
:1015B0000B467B807B687A88A3F864207868FFF705
:1015C00067FF07F10807BD4680BD00BF80B590B03A
:1015D00000AF4FF004004FF0010105F0F1FD4FF0B6
:1015E000C003FB624FF0020387F830304FF0010375
:1015F00087F8333007F12C034FF40060C4F2020087
:10160000194605F04BFB4FF40060C4F202004FF0A6
:1016100006014FF0030205F0FFFB4FF40060C4F237
:1016200002004FF007014FF0030205F0F5FB4FF009
:1016300002004FF0010105F017FE4FF4FA73BB638F
:101640004FF00003BB864FF00003BB874FF0000351
:10165000FB864FF48060C4F201004FF001014FF0AF
:1016600002024FF0020307F0A5F807F134034FF42C
:101670008060C4F20100194606F070FD4FF48060EE
:10168000C4F201004FF0010106F0FCFD4FF4806050
:10169000C4F201004FF0FA0106F0DAFD4FF001004C
:1016A0004FF0010105F08CFD4FF0000387F8283062
:1016B0004FF0010387F82B304FF002037B6207F1F4
:1016C00024034FF00000C4F20200194605F0E6FAC8
:1016D0004FF480404FF0010105F0C6FD4FF00000CF
:1016E0004FF0010106F0E2FC4FF00203FB614FF006
:1016F000000387F820304FF0080387F821304FF0BF
:10170000010387F8223007F11C03184605F02CF876
:101710004FF007033B764FF000037B764FF0010359
:10172000BB764FF00103FB7607F11803184604F06F
:10173000B3FD4FF010004FF0010105F041FD4FF0F7
:1017400000033B754FF00103FB754FF470533B6191
:1017500007F110034FF48050C4F20200194605F05F
:101760009DFA4FF480404FF0010105F07DFD4FF0F0
:1017700004004FF00D0106F099FC4FF004004FF00B
:101780000C0106F093FC4FF004004FF00B0106F043
:101790008DFC4FF004004FF00A0106F087FC4FF477
:1017A0007053BB604FF000033B734FF008037B7333
:1017B0004FF00103BB7307F10803184604F0D4FF90
:1017C0004FF028033B714FF000037B714FF0010392
:1017D000BB714FF00103FB7107F10403184604F0DD
:1017E0005BFD40F21423C2F200034FF001021A60C5
:1017F00001E020F073F907F14007BD4680BD00BF4E
:1018000080B500AF4FF48060C4F2010006F02EFDF9
:101810000346FA2B94BF00230123DBB2002B1ED01A
:1018200000F094FC03461A4640F22C23C2F2000357
:101830001A604FF48060C4F2010006F017FD034601
:10184000A3F1FA0240F22023C2F200031B689B18A6
:101850001A4640F22023C2F200031A602BE04FF434
:101860008060C4F2010006F001FD0346F92B8CBF35
:1018700000230123DBB2002B1DD000F067FC0346E0
:101880001A4640F22C23C2F200031A604FF4806023
:10189000C4F2010006F0EAFC0346C3F1FA0240F28A
:1018A0002023C2F200031B689B1A1A4640F2202331
:1018B000C2F200031A604FF48060C4F201004FF0DE
:1018C000FA0106F0C5FC80BD80B483B000AF4FF0D4
:1018D0000003FB7140F22023C2F200031B68012BBE
:1018E0001CDD40F21023C2F200031A6840F21423F8
:1018F000C2F200031B68D21840F21023C2F20003A8
:101900001A6040F22023C2F200031B68A3F1020216
:1019100040F22023C2F200031A6023E040F22023A9
:10192000C2F200031B68B3F1FF3F1BDA40F2102341
:10193000C2F200031A6840F21423C2F200031B68CB
:10194000D21A40F21023C2F200031A6040F22023A0
:10195000C2F200031B6803F1020240F22023C2F22C
:1019600000031A6040F22023C2F200031B68002B20
:10197000B8BF5B42012B03DD4FF00103FB7102E0B6
:101980004FF00003FB71FB79002BA3D107F10C078B
:10199000BD4680BC704700BF80B582B002AF4FF03B
:1019A000000300934FF09B004FF019014FF4A07219
:1019B0004FF0F00301F040FA4FF0000300934FF0B6
:1019C00087004FF0DC014FF092024FF0EE0301F080
:1019D00033FABD4680BD00BF80B582B002AF4FF084
:1019E000000300934FF087004FF000014FF4A07206
:1019F0004FF0170301F020FABD4680BD80B582B0DC
:101A000002AF4FF0000000F03BFF6FF063004FF0BB
:101A100078014FF0FA024FF6FF7301F0E1FB4FF649
:101A2000FF7300934FF000004FF017014FF4A072C6
:101A30004FF0170301F0FCF84FF6FF7300934FF0DF
:101A400000004FF018014FF4A0724FF0180301F09E
:101A5000EFF86FF065004FF078014FF0FA024FF0A9
:101A6000000301F0BDFB6FF077004FF078014FF0FD
:101A7000960240F21D5301F0B3FBBD4680BD00BF8E
:101A800080B582B002AF4FF0000300934FF000002A
:101A90004FF000014FF4A0724FF0F00301F0CCF9C9
:101AA00040F21D5300934FF008004FF008014FF42F
:101AB0009C724FF0E80301F093F940F21D5300933C
:101AC0004FF009004FF0090140F237124FF0E703E1
:101AD00001F086F9BD4680BD80B582B002AF4FF0FF
:101AE000000300934FF087004FF000014FF4A07205
:101AF0004FF0170301F0A0F94FF6FF7300934FF07A
:101B0000000301934FF0AA004FF000014BF29C320A
:101B1000C0F6020240F21C13C2F2000300F064FFA0
:101B2000BD4680BD80B483B000AF78607B68184646
:101B300007F10C07BD4680BC704700BF80B582B07E
:101B400000AF78607868FFF7EDFF7B681846FFF715
:101B5000F3F87B68184607F10807BD4680BD00BF53
:101B600080B582B000AF78607B68184600F084F8DA
:101B70007B68184607F10807BD4680BDB0B582B046
:101B800000AF78607B681D687B685C687B6818467E
:101B900000F0AAF80346284621461A4600F0B0F89D
:101BA0007B68184600F076F87B68184607F108074E
:101BB000BD46B0BD80B483B000AF78607B68184686
:101BC00007F10C07BD4680BC704700BF80B586B0EA
:101BD00000AF786039603868FFF7ECFF034607F123
:101BE00008021046194600F099F807F10803184654
:101BF000796800F0C3F807F108031846FFF7FAF90F
:101C00007B68184607F11807BD4680BD80B582B0D5
:101C100000AF78607B681846FFF7B6F8034683F09C
:101C20000103DBB2184607F10807BD4680BD00BFBF
:101C300080B582B000AF78607B681846FFF7A4F8E3
:101C40000346002B01D025F088FE7B68DB687A68AC
:101C50001046984707F10807BD4680BD80B582B0A1
:101C600000AF7860786800F0C7F87B68184607F125
:101C70000807BD4680BD00BF80B582B000AF786068
:101C80007B68184600F09EF87B68184607F1080745
:101C9000BD4680BD80B582B000AF78607B681A68B1
:101CA0007B689B6819467B681B68CB1A4FEAA301C7
:101CB0004CF63D73C3F6F34303FB01F3786811461A
:101CC0001A4600F0A7F87B681846FFF7C7FF7B6845
:101CD00005E07B681846FFF7C1FF1FF0FFFE1846BE
:101CE00007F10807BD4680BD80B483B000AF7860BF
:101CF0007B68184607F10C07BD4680BC704700BFE3
:101D000080B584B000AFF860B9607A60F868B968EF
:101D100000F094F807F11007BD4680BD80B582B091
:101D200000AF786039607868FFF7FCFE7B68184682
:101D3000FFF702F83868FFF769FF0346002B10D061
:101D40003B68DA687B68DA603B689A687B689A600F
:101D50003B689B6879683A68084611464FF0020272
:101D600098477B6805E07B681846FEF7F5FF1FF093
:101D7000B5FE184607F10807BD4680BD80B582B0A4
:101D800000AF786039607A683B681046194600F009
:101D90006FF87B6803F108023B6803F10803104603
:101DA000194600F099F87B6803F10C023B6803F1D7
:101DB0000C031046194600F0BBF807F10807BD46B2
:101DC00080BD00BF80B582B000AF7860786800F059
:101DD000CFF87B684FF000021A607B684FF000027A
:101DE0005A607B684FF000029A607B68184607F1E2
:101DF0000807BD4680BD00BF80B582B000AF7860E7
:101E0000786800F0C3F87B68184607F10807BD46FC
:101E100080BD00BF80B584B000AFF860B9607A6063
:101E2000BB68002B05D0FB681846B9687A6800F0DB
:101E3000B9F807F11007BD4680BD00BF80B582B07C
:101E400000AF786039607868396800F0B9F807F158
:101E50000807BD4680BD00BF80B483B000AF786086
:101E60007B68184607F10C07BD4680BC704700BF71
:101E700080B584B000AF786039607868FFF7ECFF18
:101E8000024607F1080392E8030083E8030038687C
:101E9000FFF7E2FF02467B6892E8030083E8030055
:101EA00007F108031846FFF7D7FF02463B6892E8A0
:101EB000030083E8030007F11007BD4680BD00BFA3
:101EC00080B483B000AF78607B68184607F10C07D8
:101ED000BD4680BC704700BF80B584B000AF78605D
:101EE00039607868FFF7ECFF03461B68FB603868D1
:101EF000FFF7E6FF03461A687B681A6007F10C03D8
:101F00001846FFF7DDFF03461A683B681A6007F1C1
:101F10001007BD4680BD00BF80B483B000AF7860BD
:101F20007B68184607F10C07BD4680BC704700BFB0
:101F300080B584B000AF786039607868FFF7ECFF57
:101F400003461B68FB603868FFF7E6FF03461A6824
:101F50007B681A6007F10C031846FFF7DDFF0346A4
:101F60001A683B681A6007F11007BD4680BD00BFC4
:101F700080B582B000AF7860786800F03FF87B6889
:101F8000184607F10807BD4680BD00BF80B483B086
:101F900000AF78607B68184607F10C07BD4680BC2F
:101FA000704700BF80B584B000AFF860B9607A6058
:101FB000B86806F09FFE07F11007BD4680BD00BF60
:101FC00080B582B000AF786039600AE0786800F0D0
:101FD00021F80346184600F029F87B6803F1540302
:101FE0007B607A683B689A420CBF00230123DBB216
:101FF000002BEBD107F10807BD4680BD80B483B04C
:1020000000AF78607B68184607F10C07BD4680BCBE
:10201000704700BF80B483B000AF78607B6818461B
:1020200007F10C07BD4680BC704700BF80B582B089
:1020300000AF78607868FFF7CFF807F10807BD4672
:1020400080BD00BF80B582B000AF786039607B682A
:10205000012B18D13A684FF6FF739A4213D140F220
:102060003020C2F20000FFF769FD40F23020C2F2DA
:10207000000040F6F571C0F6000140F20002C2F225
:1020800000021FF026FD07F10807BD4680BD00BF16
:1020900080B500AF4FF001004FF6FF71FFF7D2FFA0
:1020A00080BD00BF80B584B000AF4FF001004FF09D
:1020B000010105F0AFF84FF0FF33BB604FF0530361
:1020C000BB804FF48073BB814FF00003FB8007F1AE
:1020D00004034FF08040194606F040F84FF080406E
:1020E0004FF0010106F0CEF807F11007BD4680BDA4
:1020F00080B400AFBD4680BC704700BF80B582B0E1
:1021000000AF78607B684FF47A7202FB03F31846E5
:1021100000F004F807F10807BD4680BD80B584B023
:1021200000AF78604FF0804006F0A0F8F86000BF84
:102130004FF0804006F09AF80246FB68D21A7B689E
:102140009A42F5D907F11007BD4680BD80B500AFB2
:102150004FF0804006F08AF8024644F6D353C1F2AD
:102160006203A3FB02134FEA9313184680BD00BF1E
:1021700080B500AF4FF0804006F078F8034618466F
:1021800080BD00BF80B500AFFFF78CFFFFF7B0FF49
:1021900080BD00BF80B58AB000AF4FF002004FF0A5
:1021A000010105F00DF84FF480533B624FF003033B
:1021B00087F825304FF0010387F824304FF00003F3
:1021C00087F826304FF0000387F8273007F1200307
:1021D0004FF48060C4F20200194604F05FFD4FF036
:1021E00002004FF0010104F0EBFF4FF400633B628B
:1021F00007F120034FF48060C4F20200194604F096
:102200004DFD4FF002004FF0010104F0D9FF4FF0F7
:10221000010387F827304FF480633B6207F1200306
:102220004FF48060C4F20200194604F037FD4FF409
:102230008060C4F202004FF4006104F0D1FD4FF45D
:1022400080404FF0010104F0E5FF4FF002004FF035
:10225000010104F0B5FF4FF48060C4F202004FF0BA
:102260000D014FF0050204F0D7FD4FF48060C4F279
:1022700002004FF00E014FF0050204F0CDFD4FF4C7
:102280008060C4F202004FF00F014FF0050204F02D
:10229000C3FD4FF002033B724FF00003BB724FF0DF
:1022A0000203FB724FF003037B724FF460437B60C9
:1022B00007F104034FF48060C4F20200194604F0F1
:1022C000EDFC4FF46050C4F2000005F00BFE4FF03F
:1022D0000003BB814FF000033B824FF000037B8281
:1022E0004FF00003BB824FF40073FB824FF00003FA
:1022F0003B834FF000037B834FF00703BB834FF416
:102300008273FB8107F10C034FF46050C4F20000AC
:10231000194605F02BFE4FF46050C4F200004FF058
:10232000010105F067FE00F02FF84FF6FF7000F096
:10233000A7FA49F62A23C2F200034FF000021A80DE
:1023400049F62A23C2F200031A8849F62023C2F272
:1023500000031A8049F62423C2F200034FF0F00272
:102360001A8049F62423C2F200034FF4A0725A8067
:1023700049F62423C2F200034FF001021A7107F15B
:102380002807BD4680BD00BF80B500AF01F076F9DB
:102390004FF48060C4F202004FF4806104F020FD2D
:1023A0004FF0010000F0B4F948F28040C0F21E0086
:1023B00000F0AAFA4FF0CB0000F0AAF94FF0390074
:1023C00000F0CCF94FF02C0000F0C8F94FF00000FD
:1023D00000F0C4F94FF0340000F0C0F94FF00200F3
:1023E00000F0BCF94FF0CF0000F092F94FF0000080
:1023F00000F0B4F94FF0C10000F0B0F94FF0300038
:1024000000F0ACF94FF0E80000F082F94FF08500E1
:1024100000F0A4F94FF0000000F0A0F94FF07800B0
:1024200000F09CF94FF0EA0000F072F94FF0000064
:1024300000F094F94FF0000000F090F94FF0ED003B
:1024400000F066F94FF0640000F088F94FF00300E7
:1024500000F084F94FF0120000F080F94FF0810095
:1024600000F07CF94FF0F70000F052F94FF0200037
:1024700000F074F94FF0C00000F04AF94FF023006B
:1024800000F06CF94FF0C10000F042F94FF010007D
:1024900000F064F94FF0C50000F03AF94FF03E004B
:1024A00000F05CF94FF0280000F058F94FF0C70039
:1024B00000F02EF94FF0860000F050F94FF0360092
:1024C00000F026F94FF0480000F048F94FF03A00CC
:1024D00000F01EF94FF0550000F040F94FF0B10048
:1024E00000F016F94FF0000000F038F94FF0180036
:1024F00000F034F94FF0B60000F00AF94FF0080090
:1025000000F02CF94FF0820000F028F94FF027007E
:1025100000F024F94FF0F20000F0FAF84FF000005C
:1025200000F01CF94FF02A0000F0F2F84FF0000024
:1025300000F014F94FF0000000F010F94FF0000027
:1025400000F00CF94FF0EF0000F008F94FF02B000D
:1025500000F0DEF84FF0000000F000F94FF000004E
:1025600000F0FCF84FF0010000F0F8F84FF03F00E9
:1025700000F0F4F84FF0260000F0CAF84FF0010028
:1025800000F0ECF84FF0E00000F0C2F84FF00F0060
:1025900000F0E4F84FF0310000F0E0F84FF02B00CD
:1025A00000F0DCF84FF00C0000F0D8F84FF00E000F
:1025B00000F0D4F84FF0080000F0D0F84FF04E00D3
:1025C00000F0CCF84FF0F10000F0C8F84FF0370001
:1025D00000F0C4F84FF0070000F0C0F84FF0100012
:1025E00000F0BCF84FF0030000F0B8F84FF00E0018
:1025F00000F0B4F84FF0090000F0B0F84FF0000020
:1026000000F0ACF84FF0E10000F082F84FF000006D
:1026100000F0A4F84FF00E0000F0A0F84FF0140006
:1026200000F09CF84FF0030000F098F84FF0110014
:1026300000F094F84FF0070000F090F84FF03100F0
:1026400000F08CF84FF0C10000F088F84FF048001F
:1026500000F084F84FF0080000F080F84FF00F0011
:1026600000F07CF84FF00C0000F078F84FF03100EB
:1026700000F074F84FF0360000F070F84FF00F00E3
:1026800000F06CF84FF0110000F042F844F24020E6
:10269000C0F20F0000F038F94FF0290000F038F8D0
:1026A0004FF02C0000F034F800F0FEFF80BD00BFBA
:1026B00080B582B000AF0346FB7100BF4FF460509D
:1026C000C4F200004FF0020105F0D0FC0346002BDD
:1026D000F4D0FB799BB24FF46050C4F2000019466D
:1026E00005F0B6FC00BF4FF46050C4F200004FF09C
:1026F000010105F0BBFC0346002BF4D04FF4605001
:10270000C4F2000005F096FC07F10807BD4680BD45
:1027100080B582B000AF0346FB714FF48060C4F215
:1027200002004FF4805104F069FB4FF48060C4F262
:1027300002004FF4006104F061FBFB791846FFF7DB
:10274000B7FF4FF48060C4F202004FF4006104F060
:1027500047FB07F10807BD4680BD00BF80B582B0CA
:1027600000AF0346FB714FF48060C4F202004FF4E7
:10277000805104F035FB4FF48060C4F202004FF446
:10278000006104F03BFBFB791846FFF791FF4FF423
:102790008060C4F202004FF4006104F021FB07F1F5
:1027A0000807BD4680BD00BF80B582B000AF1346AC
:1027B0000246FA800A46BA807B80F888B988FA888F
:1027C000BB8800F015F84FF02C00FFF7A1FF7B88C5
:1027D0004FEA13239BB2DBB21846FFF7BFFF7B889B
:1027E000DBB21846FFF7BAFF07F10807BD4680BD08
:1027F00080B582B000AFF880B9807A803B804FF01E
:102800002A00FFF785FFFB884FEA13239BB2DBB258
:102810001846FFF7A3FFFB88DBB21846FFF79EFFC1
:102820007B884FEA13239BB2DBB21846FFF796FF73
:102830007B88DBB21846FFF791FF4FF02B00FFF7C4
:1028400067FFBB884FEA13239BB2DBB21846FFF742
:1028500085FFBB88DBB21846FFF780FF3B884FEA55
:1028600013239BB2DBB21846FFF778FF3B88DBB23D
:102870001846FFF773FF07F10807BD4680BD00BF8C
:1028800080B586B000AF0346FB80FB884FEA132378
:102890009BB23B61FB88DBB2FB6049F62423C2F2AA
:1028A00000031B8803F1FF339AB249F62423C2F2D6
:1028B00000035B8803F1FF339BB24FF000004FF041
:1028C0000001FFF795FF4FF02C00FFF721FF4FF0BD
:1028D00000037B610DE03B69DBB21846FFF73EFF6A
:1028E000FB68DBB21846FFF739FF7B6903F1010390
:1028F0007B617A6942F6FF33C0F201039A42EAD95A
:1029000007F11807BD4680BD80B483B000AF786082
:1029100003E07B6803F1FF337B607B68002BF8D119
:1029200007F10C07BD4680BC704700BF80B582B080
:1029300000AF0346FB714FF03600FFF7E9FEFB796D
:10294000002B04D14FF05800FFF708FF16E0FB7989
:10295000012B04D14FF08800FFF700FF0EE0FB7958
:10296000022B04D14FF02800FFF7F8FE06E0FB79B8
:10297000032B03D14FF0E800FFF7F0FEFB79002BAB
:1029800002D0FB79012B15D149F62423C2F20003B2
:102990004FF0F0021A8049F62423C2F200034FF4EC
:1029A000A0725A8049F62423C2F200034FF00102BC
:1029B0001A7114E049F62423C2F200034FF4A07206
:1029C0001A8049F62423C2F200034FF0F0025A8025
:1029D00049F62423C2F200034FF000021A7107F1F6
:1029E0000807BD4680BD00BF80B588B002AFBA60A1
:1029F0007B600346FB810B46BB8100F03FFEFB89F9
:102A0000FB8249F62023C2F20003FA891A8049F6B4
:102A10002A23C2F20003BA891A8055E0BB681B78EA
:102A20000A2B2ED17B685B781A4649F62A23C2F21C
:102A300000031B88D3189BB203F101039AB249F635
:102A40002A23C2F200031A80BB6803F101031B783A
:102A50000D2B0BD149F62023C2F200034FF00002E8
:102A60001A80BB6803F10103BB6005E049F620232F
:102A7000C2F20003FA8A1A80BB6803F10103BB604B
:102A800022E0BB681B780D2B04D1BB6803F1010366
:102A9000BB6019E049F62023C2F20003198849F609
:102AA0002A23C2F200031A88BB681B78B86800F1B9
:102AB0000100B860388C0090B88C0190084611462F
:102AC0001A467B6800F00AF8BB681B78002BA5D17A
:102AD00000F0EAFD07F11807BD4680BD80B588B05B
:102AE00000AF7B600346FB810B46BB811346FB7244
:102AF00049F62023C2F200031B881A467B681B7824
:102B0000D21849F62423C2F200031B889A4215DD2D
:102B10007B685B781A4649F62A23C2F200031B88B9
:102B2000D3189AB249F62A23C2F200031A8049F652
:102B30002023C2F200034FF000021A804FF000037E
:102B4000FB615BE07B685A68FB7AA3F1200379683C
:102B5000497801FB03F31946FB69CB184FEA43039D
:102B6000D3181B887B614FF00003BB613CE0BB695D
:102B70007A6902FA03F303F40043002B18D0BB690F
:102B80009AB249F62023C2F200031B88D31899B2E7
:102B9000FB699AB249F62A23C2F200031B88D318B4
:102BA0009AB23B8D084611461A46FFF7FDFD17E025
:102BB000BB699AB249F62023C2F200031B88D318DE
:102BC00099B2FB699AB249F62A23C2F200031B8824
:102BD000D3189AB2BB8D084611461A46FFF7E4FD9A
:102BE000BB6903F10103BB617B681B781A46BB69B3
:102BF0009A42BCD8FB6903F10103FB617B685B78F7
:102C00001A46FB699A429DD87B681B781A4649F69A
:102C10002023C2F200031B88D3189AB249F620235E
:102C2000C2F200031A8007F12007BD4680BD00BF35
:102C300080B584B000AFF880B9807A803B80FA8894
:102C40007B889A4205D97B88FB81FB887B80FB8946
:102C5000FB80BA883B889A4205D93B88FB81BB88B8
:102C60003B80FB89BB807A88FB88D31A9BB2BB81EF
:102C70003A88BB88D31A9BB27B81B7F90C30002B02
:102C800010D1F988BA883B8B084611461A46FFF7DF
:102C90008BFDBB8803F10103BB803A88BB889A4255
:102CA000EFD299E0B7F90A30002B10D1F988BA8831
:102CB0003B8B084611461A46FFF776FDFB8803F169
:102CC0000103FB807A88FB889A42EFD284E0B7F94F
:102CD0000C20B7F90A309A423FDD7B894FEA430363
:102CE0009AB2BB89D31A9BB2FB8129E0F988BA88D2
:102CF0003B8B084611461A46FFF756FDFB8803F149
:102D00000103FB80B7F90E30002B11DDBB8803F106
:102D10000103BB80B7F90A20B7F90C30D31A9BB274
:102D20004FEA43039AB2FB89D3189BB2FB8107E0B9
:102D30007B894FEA43039AB2FB89D3189BB2FB818C
:102D4000FA887B889A42D1D1F988BA883B8B0846A9
:102D500011461A46FFF728FD3EE0BB894FEA4303C0
:102D60009AB27B89D31A9BB2FB8129E0F988BA8891
:102D70003B8B084611461A46FFF716FDBB8803F148
:102D80000103BB80B7F90E30002B11DDFB8803F186
:102D90000103FB80B7F90A20B7F90C30D31A9BB2B4
:102DA0004FEA43039AB2FB89D3189BB2FB8107E039
:102DB0007B894FEA43039AB2FB89D3189BB2FB810C
:102DC000BA883B889A42D1D1F988BA883B8B0846A9
:102DD00011461A46FFF7E8FC07F11007BD4680BD13
:102DE00090B585B002AFF880B9807A803B80F888D2
:102DF000B9887A88BB883C8B0094FFF719FFF88864
:102E0000B988FA883B883C8B0094FFF711FF7888DB
:102E1000B9887A883B883C8B0094FFF709FFF888D3
:102E200039887A883B883C8B0094FFF701FF07F1D3
:102E30000C07BD4690BD00BF90B585B002AFF880CD
:102E4000B9807A803B800BE0F888B9887A88BB88A3
:102E50003C8B0094FFF7ECFEBB8803F10103BB80C1
:102E6000BA883B889A42EFD307F10C07BD4690BD64
:102E700080B586B000AFF880B9807A803B807B88CF
:102E8000C3F101039BB2FB824FF00103BB827B883D
:102E90001A464FEAC232D31A4FEA43039BB27B82EF
:102EA0004FF000033B827B88FB81F988BA887B88DE
:102EB000D3189AB23B88084611461A46FFF774FCAD
:102EC000F988BA887B88D31A9AB23B88084611469B
:102ED0001A46FFF769FCFA887B88D31899B2BA883A
:102EE0003B88084611461A46FFF75EFCFA887B8845
:102EF000D31A99B2BA883B88084611461A46FFF79A
:102F000053FC8FE0B7F91630002B0DDBFB8903F182
:102F1000FF33FB817B8A03F102039BB27B82FA8A37
:102F20007B8AD3189BB2FB823B8A03F101033B826D
:102F3000BB8A03F102039BB2BB82FA8ABB8AD31815
:102F40009BB2FB82FA883B8AD31899B2BA88FB8974
:102F5000D3189AB23B88084611461A46FFF724FC5C
:102F6000FA883B8AD31A99B2BA88FB89D3189AB2E5
:102F70003B88084611461A46FFF716FCFA883B8A3A
:102F8000D31899B2BA88FB89D31A9AB23B880846FB
:102F900011461A46FFF708FCFA883B8AD31A99B201
:102FA000BA88FB89D31A9AB23B88084611461A465A
:102FB000FFF7FAFBFA88FB89D31899B2BA883B8AE3
:102FC000D3189AB23B88084611461A46FFF7ECFB25
:102FD000FA88FB89D31A99B2BA883B8AD3189AB275
:102FE0003B88084611461A46FFF7DEFBFA88FB8944
:102FF000D31899B2BA883B8AD31A9AB23B8808464A
:1030000011461A46FFF7D0FBFA88FB89D31A99B20A
:10301000BA883B8AD31A9AB23B88084611461A46A8
:10302000FFF7C2FBB7F91020B7F90E309A42FFF64E
:1030300069AF07F11807BD4680BD00BF90B589B0E4
:1030400002AFF880B9807A803B807B88C3F10103AE
:103050009BB2FB824FF00103BB827B881A464FEA8A
:10306000C232D31A4FEA43039BB27B824FF0000374
:103070003B827B88FB81F988BA887B88D3189AB217
:103080003B88084611461A46FFF78EFBF988BA8836
:103090007B88D31A9AB23B88084611461A46FFF736
:1030A00083FBFA887B88D31899B2BA883B88084694
:1030B00011461A46FFF778FBFA887B88D31A99B233
:1030C000BA883B88084611461A46FFF76DFBFA8816
:1030D0007B88D31A98B2B988FA887B88D3189AB2B9
:1030E000BB883C880094FFF7A3FD6FE0B7F916306A
:1030F000002B0DDBFB8903F1FF33FB817B8A03F19E
:1031000002039BB27B82FA8A7B8AD3189BB2FB8232
:103110003B8A03F101033B82BB8A03F102039BB2AA
:10312000BB82FA8ABB8AD3189BB2FB82FA883B8A9D
:10313000D31A98B2BA88FB89D31899B2FA883B8A15
:10314000D3189AB2BC88FB89E3189BB23C880094E0
:10315000FFF76EFDFA883B8AD31898B2BA88FB89CC
:10316000D31A99B2FA883B8AD31A9AB2BC88FB89DF
:10317000E31A9BB23C880094FFF75AFDFA88FB895A
:10318000D31898B2BA883B8AD31899B2FA88FB89C7
:10319000D31A9AB2BC883B8AE3189BB23C8800944D
:1031A000FFF746FDFA88FB89D31898B2BA883B8AA4
:1031B000D31A99B2FA88FB89D31A9AB2BC883B8A8F
:1031C000E31A9BB23C880094FFF732FDB7F9102058
:1031D000B7F90E309A4289DB07F11C07BD4690BD56
:1031E00090B591B002AFF860B9607A607B807B687F
:1031F000C3F100037B634FF000033B637A6813461F
:103200004FEAC3739B1A4FEA430303F10203FB62C5
:103210004FF0010387F82730FA687B6BD31ABB6144
:10322000FA687B6BD31A002B03DA4FF0000387F8A0
:103230002730BA683B6BD31A3B62BA683B6BD31A30
:10324000002B02DA4FF000033B62FA687B6BD31865
:103250007B617B69B3F5A07F03DD4FF0000387F846
:1032600027303B6B4FEA43023B6AD318FB61FB6993
:10327000F02B02DD4FF0F003FB6197F82730002BB5
:103280001AD0BB6998B23B6A99B2BB699AB2FB6922
:103290009BB27C880094FFF7CBFC7B69002B0BDD95
:1032A0007B6998B23B6A99B27B699AB2FB699BB21F
:1032B0007C880094FFF7BCFCFB6ABB62BA6A3B6B7C
:1032C0009A4218DC3B6B03F101033B633B6B4FEA13
:1032D000430303F10103FA6AD318FB627B6BC3F16A
:1032E00000023B6B9A4206D1BA6A7B6B9A4202DCBF
:1032F0004FF00003BB62BA6A7B6B9A420BDD7B6BBB
:1033000003F101037B637B6B4FEA430303F101038A
:10331000FA6AD318FB627B6B002B7FF779AF07F15A
:103320003C07BD4690BD00BF80B483B000AF78605D
:103330007B6803F108027B685A607B684FF0FF32BC
:103340009A607B6803F108027B68DA607B6803F1AE
:1033500008027B681A617B684FF000021A6007F16F
:103360000C07BD4680BC704780B483B000AF786066
:103370007B684FF000021A6107F10C07BD4680BC64
:10338000704700BF80B485B000AF786039607B685B
:103390005B68FB603B68FA685A60FB689A683B6848
:1033A0009A60FB689B683A685A60FB683A689A6062
:1033B0003B687A681A617B681B6803F101027B68CD
:1033C0001A6007F11407BD4680BC704780B485B011
:1033D00000AF786039603B681B68BB60BB68B3F1C5
:1033E000FF3F03D17B681B69FB600DE07B6803F145
:1033F0000803FB6002E0FB685B68FB60FB685B68DE
:103400001A68BB689A42F6D9FB685A683B685A60EA
:103410003B685B683A689A603B68FA689A60FB6848
:103420003A685A603B687A681A617B681B6803F1E6
:1034300001027B681A6007F11407BD4680BC704723
:1034400080B485B000AF78607B685B687A6892680A
:103450009A607B689B687A6852685A607B681B69CF
:10346000FB60FB685A687B689A4203D17B689A6864
:10347000FB685A607B684FF000021A61FB681B68AA
:1034800003F1FF32FB681A60FB681B68184607F1FE
:103490001407BD4680BC704780B485B000AFF860AB
:1034A000B9607A60FB68A3F10403FB60FB684FF02E
:1034B00080721A60FB68A3F10403FB60BA68FB68C2
:1034C0001A60FB68A3F10403FB60FB684FF0000285
:1034D0001A60FB68A3F11403FB607A68FB681A604A
:1034E000FB68A3F10403FB60FB686FF002021A6043
:1034F000FB68A3F12003FB60FB68184607F1140783
:10350000BD4680BC704700BF054B19680868B0E82D
:10351000F04F80F309884FF0000080F31188704766
:103520005C7A002003480068006880F3088862B66F
:1035300000DF00BF08ED00E080B584B000AF4FF4BD
:103540006443CEF20003FB60FB681B78DBB2BB6018
:10355000FB684FF0FF021A70FB681B78DBB2FB714F
:10356000FB79DBB203F05003DAB240F24023C2F23F
:1035700000031A7040F24423C2F200034FF0070226
:103580001A6011E040F24423C2F200031B6803F109
:10359000FF3240F24423C2F200031A60FB79DBB22F
:1035A0004FEA4303DBB2FB71FB79DBB2DBB25BB208
:1035B000002BE7DB40F24423C2F200031B684FEA12
:1035C000032240F24423C2F200031A6040F2442373
:1035D000C2F200031B6803F4E06240F24423C2F22B
:1035E00000031A60BB68DAB2FB681A704EF620530B
:1035F000CEF200034EF62052CEF20002126842F4E0
:1036000070021A604EF62053CEF200034EF620529E
:10361000CEF20002126842F070421A6000F0AAF87E
:1036200040F22413C2F200034FF000021A6000F0CF
:10363000C1F84EF63473CEF200034EF63472CEF279
:103640000002126842F040421A60FFF76BFF4FF031
:103650000003184607F11007BD4680BD80B400AFD7
:103660004EF60453CEF200034FF080521A60BFF3BF
:103670004F8FBFF36F8FBD4680BC704780B500AFE2
:1036800000F02CF840F22413C2F200031B6803F18F
:10369000010240F22413C2F200031A60BFF34F8FFD
:1036A000BFF36F8F80BD00BF80B500AF40F2241321
:1036B000C2F200031B6803F1FF3240F22413C2F28E
:1036C00000031A6040F22413C2F200031B68002BAF
:1036D00003D14FF0000000F00BF880BDEFF3118034
:1036E0004FF0500181F3118870474FF000031846E6
:1036F00080F31188704700BFEFF30980114B1A68FF
:103700001EF0100F08BF20ED108A20E9F04F106066
:103710002DE908404FF0500080F3118801F00AF9BC
:103720004FF0000080F31188BDE808401968086870
:10373000B0E8F04F1EF0100F08BFB0EC108A80F315
:10374000098870475C7A002080B500AFFFF7C6FF9C
:1037500000F0D6FF0346002B06D04EF60453CEF2FF
:1037600000034FF080521A604FF00000FFF7C0FFD7
:1037700080BD00BF80B400AF4EF21403CEF2000350
:1037800040F26412C2F20002116848F2B512C1F6AA
:103790004E32A2FB01024FEA521202F1FF321A60CE
:1037A0004EF21003CEF200034FF007021A60BD463E
:1037B00080BC7047DFF80C00016841F470010160C3
:1037C0007047000088ED00E090B583B000AFEFF3E4
:1037D00005847C607B680F2B13D94CF67003C0F610
:1037E00002031A687B68D3181B78FB7040F24023F1
:1037F000C2F200031B78FA789A4202D2FFF76EFFFA
:10380000FEE74EF60C53CEF200031B6803F4E062B1
:1038100040F24423C2F200031B689A4202D9FFF728
:103820005DFFFEE707F10C07BD4690BD80B588B08F
:1038300000AF78604FF000037B6100F071FE47F647
:103840005823C2F200031B68002B08D100F0E0F8F7
:1038500047F65823C2F200034FF001021A607B685A
:10386000002B12D04CF67403C0F602031B887A6852
:10387000D3187B607B6803F00703002B05D07B68BF
:1038800023F0070303F108037B607B68002B72D0F1
:103890007A6847F2F7739A426DD847F64823C2F226
:1038A0000003BB6147F64823C2F200031B68FB61BB
:1038B00004E0FB69BB61FB691B68FB61FB695A683B
:1038C0007B689A4203D2FB691B68002BF1D1FA692D
:1038D00047F65023C2F200039A424CD0BB691A68E3
:1038E0004CF67403C0F602031B88D3187B61FB6996
:1038F0001A68BB691A60FB695A687B68D21A4CF671
:103900007403C0F602031B884FEA43039A4225D989
:10391000FA697B68D318FB60FB695A687B68D21A26
:10392000FB685A60FB697A685A60FB685B68BB6039
:1039300047F64823C2F200033B6102E03B691B6883
:103940003B613B691B685A68BB689A42F6D33B6986
:103950001A68FB681A603B69FA681A6040F228131B
:10396000C2F200031A68FB695B68D21A40F228139E
:10397000C2F200031A6000F0E5FD7B69184607F10A
:103980002007BD4680BD00BF80B586B000AF78601F
:103990007B683B617B68002B35D04CF67403C0F626
:1039A00002031B88C3F100033A69D3183B613B69EA
:1039B000FB6000F0B5FDFB685B68BB6047F6482321
:1039C000C2F200037B6102E07B691B687B617B695B
:1039D0001B685A68BB689A42F6D37B691A68FB6811
:1039E0001A607B69FA681A60FB685A6840F228130B
:1039F000C2F200031B68D21840F22813C2F200037F
:103A00001A6000F09FFD07F11807BD4680BD00BF9A
:103A100080B483B000AF184B23F007037B6047F6F8
:103A20004823C2F200037A681A6047F64823C2F2BC
:103A300000034FF000025A6047F65023C2F2000321
:103A400047F2F8725A6047F65023C2F200034FF073
:103A500000021A607B683B603B6847F2F8725A606C
:103A60003A6847F65023C2F20003136007F10C07CF
:103A7000BD4680BC704700BF5002002080B584B0B6
:103A800000AF786039607B68FB60FB68002B02D177
:103A9000FFF724FEFEE7FFF7F1FDFB681A68FB68FD
:103AA000DB6BF968096C01FB03F3D218FB685A6001
:103AB000FB684FF000029A63FB681A68FB689A6023
:103AC000FB681A68FB68DB6B03F1FF33F968096C6C
:103AD00001FB03F3D218FB68DA60FB684FF0FF329A
:103AE0005A64FB684FF0FF329A643B68002B0FD199
:103AF000FB681B69002B17D0FB6803F11003184605
:103B000000F0F4FF0346012B0ED1FFF7A7FD0BE0F9
:103B1000FB6803F110031846FFF706FCFB6803F18E
:103B200024031846FFF700FCFFF7BEFD4FF001032A
:103B3000184607F11007BD4680BD00BF80B588B0AC
:103B400000AFF860B9601346FB714FF00003FB61F2
:103B5000FB68002B2DD04FF05000FFF767FEB861D7
:103B6000BB69002B25D0FB68BA6802FB03F303F1A5
:103B700001037B617869FFF759FE0246BB691A6051
:103B8000BB691B68002B11D0BB69FA68DA63BB699B
:103B9000BA681A64B8694FF00101FFF76FFFBB699B
:103BA000FA7983F84D20BB69FB6102E0B869FFF741
:103BB000EBFEFB69002B02D1FFF790FDFEE7FB69EE
:103BC000184607F12007BD4680BD00BF80B588B00C
:103BD00000AFF860B9607A603B604FF00003FB61B2
:103BE000FB68BB61BB69002B02D1FFF777FDFEE7E5
:103BF000BB68002B03D1BB691B6C002B02D14FF0BB
:103C0000010301E04FF00003002B02D1FFF766FD36
:103C1000FEE73B68022B03D1BB69DB6B012B02D1B2
:103C20004FF0010301E04FF00003002B03D1FFF739
:103C300055FDFEE700BFFFF721FDBB699A6BBB692D
:103C4000DB6B9A4202D33B68022B18D1B869B96882
:103C50003A6800F0C7F9BB695B6A002B0AD0BB6900
:103C600003F12403184600F041FF0346012B01D164
:103C7000FFF7F4FCFFF718FD4FF001035DE07B68F0
:103C8000002B04D1FFF710FD4FF0000355E0FB6956
:103C9000002B07D107F11003184600F08FFF4FF0FB
:103CA0000103FB61FFF700FD00F03AFCFFF7E6FCC3
:103CB000BB695B6CB3F1FF3F03D1BB694FF00002FE
:103CC0005A64BB699B6CB3F1FF3F03D1BB694FF0F2
:103CD00000029A64FFF7E8FC07F1100207F1040301
:103CE0001046194600F086FF0346002B1ED1B86926
:103CF00000F078FA0346002B12D0BB6903F11002E2
:103D00007B681046194600F07FFEB86900F000FAA3
:103D100000F018FC0346002B8CD1FFF79FFC89E7CD
:103D2000B86900F0F5F900F00DFC83E7B86900F020
:103D3000EFF900F007FC4FF00003184607F12007E9
:103D4000BD4680BD80B588B000AFF860B9607A60CC
:103D50003B60FB68BB61BB69002B02D1FFF7BEFC77
:103D6000FEE7BB68002B03D1BB691B6C002B02D1A3
:103D70004FF0010301E04FF00003002B02D1FFF7E9
:103D8000ADFCFEE73B68022B03D1BB69DB6B012B6B
:103D900002D14FF0010301E04FF00003002B02D1EC
:103DA000FFF79CFCFEE7FFF70FFDFFF797FC78613C
:103DB000BB699A6BBB69DB6B9A4202D33B68022BEF
:103DC00028D1B869B9683A6800F00CF9BB699B6CF6
:103DD000B3F1FF3F14D1BB695B6A002B16D0BB69FE
:103DE00003F12403184600F081FE0346002B0DD09A
:103DF0007B68002B0AD07B684FF001021A6005E057
:103E0000BB699B6C03F10102BB699A644FF001032B
:103E1000FB6102E04FF00003FB617869FFF768FC8B
:103E2000FB69184607F12007BD4680BD80B58AB002
:103E300000AFF860B9607A603B604FF000037B62CE
:103E4000FB683B623B6A002B02D1FFF747FCFEE7B1
:103E5000BB68002B03D13B6A1B6C002B02D14FF0D7
:103E6000010301E04FF00003002B03D1FFF736FC04
:103E7000FEE700BFFFF702FC3B6A9B6B002B3FD0C5
:103E80003B6ADB68FB61386AB96800F019F93B6886
:103E9000002B1ED13B6A9B6B03F1FF323B6A9A6396
:103EA0003B6A1B68002B04D101F098F802463B6A7C
:103EB0005A603B6A1B69002B1DD03B6A03F110035B
:103EC000184600F013FE0346012B14D1FFF7C6FB82
:103ED00011E03B6AFA69DA603B6A5B6A002B0AD040
:103EE0003B6A03F12403184600F000FE0346002B52
:103EF00001D0FFF7B3FBFFF7D7FB4FF001036BE0F7
:103F00007B68002B04D1FFF7CFFB4FF0000363E089
:103F10007B6A002B07D107F11403184600F04EFE10
:103F20004FF001037B62FFF7BFFB00F0F9FAFFF7E8
:103F3000A5FB3B6A5B6CB3F1FF3F03D13B6A4FF0DB
:103F400000025A643B6A9B6CB3F1FF3F03D13B6AAA
:103F50004FF000029A64FFF7A7FB07F1140207F184
:103F600004031046194600F045FE0346002B2CD1F1
:103F7000386A00F01DF90346002B20D03B6A1B680D
:103F8000002B08D1FFF77AFB3B6A5B68184601F00B
:103F900059F8FFF789FB3B6A03F124027B6810465E
:103FA000194600F031FD386A00F0B2F800F0CAFAA4
:103FB0000346002B7FF45DAFFFF750FB59E7386AEB
:103FC00000F0A6F800F0BEFA53E7386A00F0A0F857
:103FD00000F0B8FA4FF00003184607F12807BD4675
:103FE00080BD00BF80B584B000AFF860B9607A6072
:103FF000FB681B6C002B0DD1FB681B68002B55D197
:10400000FB685B68184601F091F8FB684FF000020E
:104010005A604BE07B68002B1AD1FB689A68FB68FA
:104020001B6C1046B9681A4625F0A2FDFB689A6819
:10403000FB681B6CD218FB689A60FB689A68FB6887
:104040005B689A4232D3FB681A68FB689A602DE07D
:10405000FB68DA68FB681B6C1046B9681A4625F0E5
:1040600087FDFB68DA68FB681B6CC3F10003D2189C
:10407000FB68DA60FB68DA68FB681B689A4208D262
:10408000FB685A68FB681B6CC3F10003D218FB681D
:10409000DA607B68022B09D1FB689B6B002B05D093
:1040A000FB689B6B03F1FF32FB689A63FB689B6BB9
:1040B00003F10102FB689A6307F11007BD4680BD5A
:1040C00080B582B000AF786039607B681B68002BD8
:1040D00019D07B68DA687B681B6CD2187B68DA6061
:1040E0007B68DA687B685B689A4203D37B681A68EE
:1040F0007B68DA607B68DA687B681B6C386811461D
:104100001A4625F035FD07F10807BD4680BD00BF02
:1041100080B582B000AF7860FFF7B0FA14E07B683A
:104120005B6A002B15D07B6803F12403184600F06E
:10413000DDFC0346002B01D000F0B4FD7B689B6CD6
:1041400003F1FF327B689A647B689B6C002BE6DC92
:1041500000E000BF7B684FF0FF329A64FFF7A4FADB
:10416000FFF78CFA14E07B681B69002B15D07B6885
:1041700003F11003184600F0B9FC0346002B01D0F0
:1041800000F090FD7B685B6C03F1FF327B685A6442
:104190007B685B6C002BE6DC00E000BF7B684FF0C7
:1041A000FF325A64FFF780FA07F10807BD4680BD69
:1041B00080B584B000AF7860FFF760FA7B689B6BD6
:1041C000002B03D14FF00103FB6002E04FF000032E
:1041D000FB60FFF769FAFB68184607F11007BD4658
:1041E00080BD00BF80B584B000AF7860FFF746FAAD
:1041F0007B689A6B7B68DB6B9A4203D14FF00103BB
:10420000FB6002E04FF00003FB60FFF74DFAFB6834
:10421000184607F11007BD4680BD00BF80B584B0C9
:1042200000AF786039607B68FB60FFF727FAFB68B6
:104230005B6CB3F1FF3F03D1FB684FF000025A649F
:10424000FB689B6CB3F1FF3F03D1FB684FF00002AA
:104250009A64FFF729FAFB689B6B002B06D1FB6879
:1042600003F124031846396800F010FCF868FFF7E2
:104270004FFF07F11007BD4680BD00BF80B58AB073
:1042800002AFF860B9603B601346FB80FB68002B0F
:1042900002D1FFF723FAFEE7BB6A042B02D9FFF72E
:1042A0001DFAFEE7FB881846396B00F04FFEB86137
:1042B000BB69002B00F0A380BB691A6BFB8803F17C
:1042C000FF334FEA8303D3187B617B6923F0070335
:1042D0007B617B6903F00703002B02D0FFF7FEF937
:1042E000FEE7FB880093B869B968BA6A7B6B00F097
:1042F000F7FC7869F9683A68FFF7CEF80246BB69BF
:104300001A60FB6A002B02D0FB6ABA691A60FFF7D9
:10431000B5F947F63433C2F200031B6803F101021A
:1043200047F63433C2F200031A6047F65C23C2F248
:1043300000031B68002B0FD147F65C23C2F2000379
:10434000BA691A6047F63433C2F200031B68012BC6
:1043500018D100F015FD15E047F64033C2F2000316
:104360001B68002B0ED147F65C23C2F200031B68CA
:10437000DA6ABB6A9A4205D847F65C23C2F20003A8
:10438000BA691A6047F65433C2F200031B6803F19E
:10439000010247F65433C2F200031A6047F6543361
:1043A000C2F200031A68BB691A64BB69DA6A47F68D
:1043B0003C33C2F200031B689A4206D9BB69DA6A31
:1043C00047F63C33C2F200031A60BB69DA6A13464F
:1043D0004FEA83039B184FEA830347F66022C2F239
:1043E00000029A18BB6903F1040310461946FEF750
:1043F000C9FF4FF00103FB61FFF756F902E04FF0F0
:10440000FF33FB61FB69012B11D147F64033C2F248
:1044100000031B68002B0AD047F65C23C2F200039E
:104420001B68DA6ABB6A9A4201D2FFF717F9FB6987
:10443000184607F12007BD4680BD00BF80B584B097
:1044400000AF78604FF00003FB607B68002B19D051
:1044500000F066F847F63833C2F200031A687B684A
:10446000D318BB6047F65C23C2F200031B6803F15C
:1044700004031846FEF7E4FFB86800F021FD00F0E1
:1044800061F8F860FB68002B01D1FFF7E7F807F14E
:104490001007BD4680BD00BF80B586B004AF4FF0A9
:1044A000000300934FF0000301934FF000030293C9
:1044B0004FF00003039344F6BD40C0F600004CF6F5
:1044C0007801C0F602014FF082024FF00003FFF7BF
:1044D000D5FE78607B68012B02D100F06FFE78601A
:1044E0007B68012B12D1FFF7F9F847F64033C2F28F
:1044F00000034FF001021A6047F63833C2F200039E
:104500004FF000021A60FFF717F805E07B68002BF8
:1045100002D1FFF7E3F8FEE707F10807BD4680BDCB
:1045200080B400AF47F64433C2F200031B6803F1C6
:10453000010247F64433C2F200031A60BD4680BC54
:10454000704700BF80B584B000AF4FF00003FB6040
:104550004FF00003BB6047F64433C2F200031B6810
:10456000002B02D1FFF7BAF8FEE7FFF787F847F60E
:104570004433C2F200031B6803F1FF3247F64433B1
:10458000C2F200031A6047F64433C2F200031B680C
:10459000002B40F08D8047F63433C2F200031B68D5
:1045A000002B00F0858043E047F6F423C2F20003BD
:1045B000DB68DB687B607B6803F118031846FEF755
:1045C0003FFF7B6803F104031846FEF739FF7B6861
:1045D000DA6A47F63C33C2F200031B689A4206D9F6
:1045E0007B68DA6A47F63C33C2F200031A607B68E4
:1045F000DA6A13464FEA83039B184FEA830347F6B0
:104600006022C2F200029A187B6803F1040310468C
:104610001946FEF7B7FE7B68DA6A47F65C23C2F2FA
:1046200000031B68DB6A9A4202D34FF00103BB60B0
:1046300047F6F423C2F200031B68002BB4D147F6FF
:104640004833C2F200031B68002B1BD013E000F0BC
:1046500057F80346002B02D04FF00103BB6047F62A
:104660004833C2F200031B6803F1FF3247F64833B8
:10467000C2F200031A6047F64833C2F200031B6817
:10468000002BE4D1BB68012B06D047F64C33C2F2B5
:1046900000031B68012B0BD14FF00103FB6047F6B1
:1046A0004C33C2F200034FF000021A60FEF7D6FF4F
:1046B000FEF7FAFFFB68184607F11007BD4680BDFC
:1046C00080B582B000AFFEF7D9FF47F63833C2F2AB
:1046D00000031B687B60FEF7E7FF7B68184607F165
:1046E0000807BD4680BD00BF80B400AF47F6343335
:1046F000C2F200031B681846BD4680BC704700BF6D
:1047000080B586B000AF4FF000037B6147F64433BD
:10471000C2F200031B68002B40F0F98047F63833E3
:10472000C2F200031B6803F1010247F63833C2F2FC
:1047300000031A6047F63833C2F200031B683B617E
:104740003B69002B52D147F6EC23C2F200031B68F1
:104750001B68002B02D0FEF7C1FFFEE747F6EC23F3
:10476000C2F200031B68FB6047F6F023C2F20003AD
:104770001A6847F6EC23C2F200031A6047F6F023EA
:10478000C2F20003FA681A6047F65033C2F200031F
:104790001B6803F1010247F65033C2F200031A60AE
:1047A00047F6EC23C2F200031B681B68002B02D102
:1047B0004FF0010301E04FF00003002B07D040F25F
:1047C0002C13C2F200034FF0FF321A600EE047F6DE
:1047D000EC23C2F200031B68DB68DB68BB60BB68CC
:1047E0005A6840F22C13C2F200031A6040F22C13F4
:1047F000C2F200031B683A699A4270D300E000BF1E
:1048000047F6EC23C2F200031B681B68002B02D1A1
:104810004FF0010301E04FF00003002B07D040F2FE
:104820002C13C2F200034FF0FF321A6057E047F634
:10483000EC23C2F200031B68DB68DB68BB60BB686B
:104840005B687B603A697B689A4206D240F22C131F
:10485000C2F200037A681A6041E0BB6803F1040306
:104860001846FEF7EDFDBB689B6A002B05D0BB68C0
:1048700003F118031846FEF7E3FDBB68DA6A47F652
:104880003C33C2F200031B689A4206D9BB68DA6A5D
:1048900047F63C33C2F200031A60BB68DA6A13467B
:1048A0004FEA83039B184FEA830347F66022C2F264
:1048B00000029A18BB6803F1040310461946FEF77C
:1048C00061FDBB68DA6A47F65C23C2F200031B682D
:1048D000DB6A9A4293D34FF001037B618FE747F67F
:1048E0005C23C2F200031B68D96A47F66022C2F259
:1048F00000020B464FEA83035B184FEA8303D31889
:104900001B68012B0FD94FF001037B610BE047F6C9
:104910004833C2F200031B6803F1010247F6483333
:10492000C2F200031A607B69184607F11807BD46FA
:1049300080BD00BF80B582B000AF47F64433C2F2FD
:1049400000031B68002B1DD047F64C33C2F2000356
:104950004FF001021A6052E047F63C33C2F2000306
:104960001B68002B02D1FEF7B9FEFEE747F63C3389
:10497000C2F200031B6803F1FF3247F63C33C2F278
:1049800000031A6047F63C33C2F20003196847F689
:104990006022C2F200020B464FEA83035B184FEA23
:1049A0008303D3181B68002BD6D047F63C33C2F2E2
:1049B00000031A6813464FEA83039B184FEA8303E8
:1049C00047F66022C2F200029B187B607B685B683E
:1049D0005A687B685A607B685A687B6803F10803F1
:1049E0009A4204D17B685B685A687B685A607B682E
:1049F0005B68DA6847F65C23C2F200031A6007F1CD
:104A00000807BD4680BD00BF80B584B000AF7860A8
:104A100039607B68002B02D1FEF760FEFEE747F6A7
:104A20005C23C2F200031B6803F11803786819467F
:104A3000FEF7CCFC47F65C23C2F200031B6803F1CF
:104A400004031846FEF7FCFC3B68B3F1FF3F0ED1B0
:104A500047F65C23C2F200031B6803F1040347F628
:104A60002030C2F200001946FEF78CFC0AE047F63F
:104A70003833C2F200031A683B68D318FB60F86849
:104A800000F01EFA07F11007BD4680BD80B584B066
:104A900000AF786039607B68002B02D1FEF71EFE04
:104AA000FEE747F65C23C2F200031B6803F118031C
:104AB00078681946FEF766FC47F65C23C2F20003ED
:104AC0001B6803F104031846FEF7BAFC47F63833B7
:104AD000C2F200031A683B68D318FB60F86800F064
:104AE000EFF907F11007BD4680BD00BF80B584B067
:104AF00000AF78607B68DB68DB68BB60BB68002B5D
:104B000002D1FEF7EBFDFEE7BB6803F11803184680
:104B1000FEF796FC47F64433C2F200031B68002BF5
:104B20002AD1BB6803F104031846FEF789FCBB6871
:104B3000DA6A47F63C33C2F200031B689A4206D990
:104B4000BB68DA6A47F63C33C2F200031A60BB68FE
:104B5000DA6A13464FEA83039B184FEA830347F64A
:104B60006022C2F200029A18BB6803F104031046E7
:104B70001946FEF707FC09E0BB6803F1180347F686
:104B8000F420C2F200001946FEF7FCFBBB68DA6AAB
:104B900047F65C23C2F200031B68DB6A9A4203D328
:104BA0004FF00103FB6002E04FF00003FB60FB6885
:104BB000184607F11007BD4680BD00BF80B582B022
:104BC00000AF78607B68002B02D1FEF787FDFEE71F
:104BD00047F65033C2F200031A687B681A6047F642
:104BE0003833C2F200031A687B685A6007F108077D
:104BF000BD4680BD80B584B000AF786039607B6809
:104C0000002B02D1FEF76AFDFEE73B68002B02D1C4
:104C1000FEF764FDFEE7FEF731FD47F63833C2F2DA
:104C200000031B68BB603B681B68B3F1FF3F03D107
:104C30004FF00003FB602CE07B681A6847F65033A6
:104C4000C2F200031B689A4208D07B685A68BB68AE
:104C50009A4203D84FF00103FB601AE07B685B685F
:104C6000BA68D21A3B681B689A420FD23B681A682E
:104C70007B685968BB68CB1AD2183B681A607868A1
:104C8000FFF79CFF4FF00003FB6002E04FF00103D1
:104C9000FB60FEF709FDFB68184607F11007BD46EB
:104CA00080BD00BF80B400AF47F64C33C2F20003B2
:104CB0004FF001021A60BD4680BC704780B582B0DB
:104CC00000AF786000E000BF00F0ACF847F660236A
:104CD000C2F200031B68012BF5D9FEF7BFFCF2E717
:104CE00080B586B000AFF860B9607A603B604FF085
:104CF00000037B6113E0BA687B69D3181A78F968FE
:104D00007B69CB1803F130031A71BA687B69D31839
:104D10001B78002B07D07B6903F101037B617B6962
:104D2000092BE8D900E000BFFB684FF0000283F8D0
:104D30003D207B68042B02D94FF004037B60FB68A5
:104D40007A68DA62FB687A689A64FB6803F10403A4
:104D50001846FEF709FBFB6803F118031846FEF737
:104D600003FBFB68FA681A617B68C3F10502FB6804
:104D70009A61FB68FA685A6207F11807BD4680BD60
:104D800080B582B000AF4FF000037B6012E07A681C
:104D900013464FEA83039B184FEA830347F66022CA
:104DA000C2F200029B181846FEF7BEFA7B6803F1B8
:104DB00001037B607B68042BE9D947F6C420C2F26B
:104DC0000000FEF7B1FA47F6D820C2F20000FEF765
:104DD000ABFA47F6F420C2F20000FEF7A5FA47F658
:104DE0000830C2F20000FEF79FFA47F62030C2F208
:104DF0000000FEF799FA47F6EC23C2F2000347F6EB
:104E0000C422C2F200021A6047F6F023C2F2000385
:104E100047F6D822C2F200021A6007F10807BD4621
:104E200080BD00BF80B582B000AF3DE0FFF778FBEA
:104E300047F60833C2F200031B68002B14BF00239F
:104E40000123DBB27B60FFF77DFB7B68002B2BD15E
:104E5000FEF714FC47F60833C2F20003DB68DB6898
:104E60003B603B6803F104031846FEF7E9FA47F696
:104E70003433C2F200031B6803F1FF3247F63433C8
:104E8000C2F200031A6047F61C33C2F200031B682B
:104E900003F1FF3247F61C33C2F200031A60FEF73B
:104EA00003FC386800F08AF847F61C33C2F20003AE
:104EB0001B68002BBAD107F10807BD4680BD00BFB3
:104EC00080B582B000AF786047F65C23C2F2000381
:104ED0001B687A685A6047F63833C2F200031B68D1
:104EE0007A689A4210D247F6F023C2F200031A6899
:104EF00047F65C23C2F200031B6803F1040310466B
:104F00001946FEF763FA1DE047F6EC23C2F20003F0
:104F10001A6847F65C23C2F200031B6803F104031E
:104F200010461946FEF752FA40F22C13C2F2000363
:104F30001B687A689A4205D240F22C13C2F2000331
:104F40007A681A6007F10807BD4680BD80B584B055
:104F500000AF03463960FB804FF04C00FEF766FC63
:104F6000F860FB68002B23D03B68002B07D1FB883F
:104F70004FEA83031846FEF759FC034600E03B68FE
:104F8000FA681363FB681B6B002B06D1F868FEF709
:104F9000FBFC4FF00003FB600AE0FB681A6BFB8828
:104FA0004FEA830310464FF0A5011A4624F002FE93
:104FB000FB68184607F11007BD4680BD80B582B07A
:104FC00000AF78607B681B6B1846FEF7DDFC7868E5
:104FD000FEF7DAFC07F10807BD4680BD80B483B058
:104FE00000AF47F65C23C2F200031B687B607B685E
:104FF000184607F10C07BD4680BC704780B483B0EB
:1050000000AF47F64033C2F200031B68002B03D108
:105010004FF000037B600DE047F64433C2F200031B
:105020001B68002B03D14FF001037B6002E04FF0BF
:1050300002037B607B68184607F10C07BD4680BC05
:10504000704700BF80B584B000AF78607B68FB60BC
:105050007B68002B66D0FB68DA6A47F65C23C2F2F5
:1050600000031B68DB6A9A425CD247F65C23C2F2FB
:1050700000031B68DB6AC3F10502FB689A61FB68E9
:105080005969FB68DA6A13464FEA83039B184FEAB3
:10509000830347F66022C2F200029B18994202D1B4
:1050A0004FF0010301E04FF00003002B32D0FB680A
:1050B00003F104031846FEF7C3F947F65C23C2F276
:1050C00000031B68DA6AFB68DA62FB68DA6A47F693
:1050D0003C33C2F200031B689A4206D9FB68DA6AC5
:1050E00047F63C33C2F200031A60FB68DA6A1346E3
:1050F0004FEA83039B184FEA830347F66022C2F20C
:1051000000029A18FB6803F1040310461946FEF7E3
:1051100039F907E047F65C23C2F200031B68DA6A3C
:10512000FB68DA6207F11007BD4680BD80B584B028
:1051300000AF78607B68FB607B68002B39D0FB6830
:10514000DA6AFB689B6C9A4233D0FB6803F1040374
:105150001846FEF775F9FB689A6CFB68DA62FB6823
:10516000DB6AC3F10502FB689A61FB68DA6A47F6FD
:105170003C33C2F200031B689A4206D9FB68DA6A24
:1051800047F63C33C2F200031A60FB68DA6A134642
:105190004FEA83039B184FEA830347F66022C2F26B
:1051A00000029A18FB6803F1040310461946FEF743
:1051B000E9F807F11007BD4680BD00BF80B586B095
:1051C00004AF4FF000037B6000F0A4FA47F6883389
:1051D000C2F200031B68002B1AD04FF002030093A9
:1051E0004FF0000301934FF0000302934FF00003D0
:1051F000039345F25130C0F600004CF68001C0F632
:1052000002014FF482724FF00003FFF737F8786025
:105210007B68002B02D1FEF761FAFEE77B68184637
:1052200007F10807BD4680BD80B588B000AFF860C3
:10523000B9607A603B604FF00003FB6147F688334A
:10524000C2F200031B68002B3DD0BB683B617B684A
:105250007B61FB68BB613B68002B25D1FFF7CEFE6D
:105260000346012B0FD147F68833C2F200031A68B8
:1052700007F1100310461946BA6A4FF00003FEF713
:10528000A5FCF8611FE047F68833C2F200031A68F4
:1052900007F11003104619464FF000024FF00003CB
:1052A000FEF794FCF8610EE047F68833C2F2000383
:1052B0001A6807F11003104619463A684FF00003C8
:1052C000FEF740FDF861FB69184607F12007BD466F
:1052D00080BD00BF80B586B002AF7860396047F608
:1052E0008033C2F200031B68DB68DB68FB60FB688D
:1052F00003F104031846FEF7A3F8FB68DB69012BF2
:105300001ED1FB689A697B68D318F86819463A6819
:105310007B6800F0BFF80346012B11D14FF000036A
:105320000093F8684FF000017A684FF00003FFF730
:105330007BFFB860BB68002B02D1FEF7CFF9FEE718
:10534000FB685B6AF868984707F11007BD4680BDA7
:1053500080B584B000AF786007F10803184600F00C
:1053600043F8F860BB68F868194600F003F800F0ED
:10537000DBF8F1E780B584B000AF78603960FFF703
:10538000CFF807F10803184600F058F8F860BB683A
:10539000002B21D13B68002B0AD17A68FB689A4226
:1053A00006D8FFF7CFF87868F968FFF793FF17E0A2
:1053B00047F68833C2F200031A687968FB68CB1A93
:1053C00010461946FEF72AFFFFF7BCF80346002BEC
:1053D00005D1FEF743F902E0FFF7B4F800E000BFA3
:1053E00007F11007BD4680BD80B485B000AF78607E
:1053F00047F68033C2F200031B681B68002B14BF02
:1054000000230123DBB21A467B681A607B681B68A5
:10541000002B08D147F68033C2F200031B68DB681B
:105420001B68FB6002E04FF00003FB60FB6818465E
:1054300007F11407BD4680BC704700BF80B584B03B
:1054400000AF7860FFF73CF9F86047F68C33C2F2A2
:1054500000031B68FA689A420CD247F68C33C2F2FA
:1054600000031B68184600F0E1F87B684FF001026A
:105470001A6003E07B684FF000021A6047F68C3335
:10548000C2F20003FA681A60FB68184607F11007B9
:10549000BD4680BD80B586B000AFF860B9607A6067
:1054A0003B604FF000037B61FB68BA685A60FB68A1
:1054B000FA681A61BA687B689A4217D87A683B68BA
:1054C000D21AFB689B699A4203D34FF001037B61B8
:1054D00024E047F68433C2F200031A68FB6803F144
:1054E000040310461946FDF771FF17E07A683B6820
:1054F0009A4207D2BA683B689A4203D34FF001033D
:105500007B610BE047F68033C2F200031A68FB6848
:1055100003F1040310461946FDF758FF7B6918464E
:1055200007F11807BD4680BD80B58AB002AF66E0BE
:105530003B69FB61FB695B69002B05D0FB6903F1EB
:1055400004031846FDF77CFF07F104031846FFF734
:1055500075FFB861BB68032B4ED801A252F823F047
:1055600071550008F9550008C7550008F1550008A5
:10557000FA68FB699B69D218FB68F8691146BA6939
:10558000FFF788FF0346012B38D1FB695B6AF86996
:105590009847FB69DB69012B30D1FA68FB699B698D
:1055A000D3184FF000020092F8694FF000011A463C
:1055B0004FF00003FFF738FE78617B69002B1DD1A7
:1055C000FEF78CF8FEE7FA68FB699A61FB699B6954
:1055D000002B02D1FEF782F8FEE7FB699A69BB69EE
:1055E000D318F8691946BA69BB69FFF753FF06E09B
:1055F000F869FEF7C9F902E000BF00E000BF47F616
:105600008833C2F200031A6807F1080310461946EE
:105610004FF000024FF00003FEF708FC0346002B9A
:1056200086D107F12007BD4680BD00BF80B58AB096
:1056300002AF78604BE047F68033C2F200031B688C
:10564000DB681B68FB6147F68033C2F200031B680E
:10565000DB68DB68BB61BB6903F104031846FDF737
:10566000EFFEBB695B6AB8699847BB69DB69012BD0
:105670002DD1BB699A69FB69D3187B617A69FB6993
:105680009A4212D9BB697A695A60BB69BA691A61D0
:1056900047F68033C2F200031A68BB6903F10403C2
:1056A00010461946FDF792FE11E04FF000030093FB
:1056B000B8694FF00001FA694FF00003FFF7B4FD3D
:1056C00038613B69002B02D1FEF708F8FEE747F688
:1056D0008033C2F200031B681B68002BABD147F676
:1056E0008033C2F200031B68FB6047F68433C2F2CA
:1056F00000031A6847F68033C2F200031A6047F6C7
:105700008433C2F20003FA681A6007F12007BD462D
:1057100080BD00BF80B500AFFDF7B0FF47F688330E
:10572000C2F200031B68002B2BD147F65830C2F29F
:105730000000FDF7F9FD47F66C30C2F20000FDF7FE
:10574000F3FD47F68033C2F2000347F65832C2F247
:1057500000021A6047F68433C2F2000347F66C3247
:10576000C2F200021A604FF00A004FF00C014FF035
:105770000002FEF7E3F9024647F68833C2F200035F
:105780001A60FDF791FF80BD80B588B000AF034679
:105790003960FB804FF008004FF0010101F010FD6F
:1057A0004FF000033B774FF00003FB774FF04003CF
:1057B000BB6107F118034FF44060C4F202001946C0
:1057C00001F06CFA4FF480404FF0010101F04CFD04
:1057D0004FF003004FF0060102F068FC4FF0400369
:1057E0003B614FF000033B754FF010037B754FF0AA
:1057F0000103BB7507F11003184600F0B5FF4FF029
:1058000017033B734FF000037B734FF00003BB7330
:105810004FF00103FB7307F10C03184600F03CFD49
:10582000FB88DAB247F69133C2F200031A7047F6EA
:105830009433C2F200033A681A6000F007F801E0FE
:105840001CF04CF907F12007BD4680BD80B400AFC5
:1058500047F69033C2F200034FF0FF021A7047F68A
:105860009933C2F200034FF001021A70BD4680BCAA
:10587000704700BF80B400AF47F69933C2F200030F
:105880004FF000021A70BD4680BC704780B582B0F0
:1058900000AF47F69933C2F200031B7883F001038F
:1058A000DBB2002B40F0838247F69C33C2F2000348
:1058B0009A6847F69C33C2F200035A60FCF758FC22
:1058C00003461A4647F69C33C2F200039A6047F635
:1058D000A833C2F200031B78002B07D047F6A83389
:1058E000C2F200034FF000021A7063E247F69033F1
:1058F000C2F200031B78DBB25BB2002B14DB47F66D
:105900009C33C2F200039A6847F69C33C2F200034C
:105910005B68D21A47F6AC33C2F200031B689A42A6
:1059200002D24FF0010301E04FF00003002B07D03B
:1059300047F6A833C2F200034FF001021A7039E2B1
:1059400047F69C33C2F200035A6847F69C33C2F212
:1059500000031B68D31A7B6047F69C33C2F2000336
:105960005A6847F69C33C2F200031A6047F6903338
:10597000C2F200031B78DBB25BB2B3F1FF3F14BF8E
:1059800000230123DBB2002B00F08B807A6840F605
:1059900088639A4240F20D827A6841F28503C0F62C
:1059A0004203A3FB0213D21A4FEA52029B184FEA9A
:1059B000131247F6B033C2F200031A6047F6B4334D
:1059C000C2F200034FF000021A7047F6B833C2F279
:1059D00000034FF000021A6047F6B833C2F200032A
:1059E0001A6847F6BC33C2F200031A6047F6B033B8
:1059F000C2F200031B684FEA83024CF6CD43CCF69B
:105A0000CC43A3FB02134FEAD30247F6AC33C2F2F6
:105A100000031A6047F6B033C2F200031B684FEA76
:105A200003124CF6CD43CCF6CC43A3FB02134FEA52
:105A3000D30247F6C033C2F200031A6047F6B03310
:105A4000C2F200031A6813464FEA43039B184FEA59
:105A5000C3039A1A4CF6CD43CCF6CC43A3FB0213F6
:105A60004FEAD30247F6C433C2F200031A6047F686
:105A7000B033C2F200031A6813464FEAC3039B18FF
:105A80004FEA83039A184CF6CD43CCF6CC43A3FBE4
:105A900002134FEAD30247F6C833C2F200031A607A
:105AA00075E147F69033C2F200031B78DBB25BB2BC
:105AB0002F2BCCBF00230123DBB2002B00F0AB80E7
:105AC00047F6CC33C2F200031B884FEA43039AB275
:105AD00047F6CC33C2F200031A8047F6C033C2F255
