:020000040800F2
:100000000000022071F80008A5F800082D6600081D
:10001000A9F80008ABF80008ADF8000800000000DF
:100020000000000000000000000000008D1D00081E
:10003000B1F80008000000000D1E00085D1E000859
:10004000B9F80008BBF80008BDF80008BFF80008C0
:10005000C1F80008C3F80008C5F800087165000879
:10006000C9F80008CBF80008CDF80008CFF8000860
:10007000D1F80008D3F80008D5F80008D7F8000830
:10008000D9F80008DBF80008DDF80008DFF8000800
:10009000E1F80008E3F80008E5F80008A1650008A9
:1000A000E9F80008EBF80008EDF80008EFF80008A0
:1000B000F1F80008F3F80008F5F80008F7F8000870
:1000C000F9F80008FBF80008FDF80008FFF8000840
:1000D00001F90008D16400082165000807F900084B
:1000E000598D0008C56500080DF900080FF90008D2
:1000F00011F9000813F9000815F9000817F90008AC
:1001000019F900081BF900081DF900081FF900087B
:1001100021F9000823F9000825F9000827F900084B
:1001200029F900082BF900082DF900082FF900081B
:1001300031F9000833F9000835F9000837F90008EB
:1001400039F900083BF900083DF900083FF90008BB
:1001500041F9000843F9000845F9000847F900088B
:1001600049F900084BF900084DF900084FF900085B
:1001700051F9000853F9000855F9000857F900082B
:1001800059F900085BF9000810B5054C237833B91C
:10019000044B13B10448AFF300800123237010BD5A
:1001A000DC000020000000008CDE010808B5064BD2
:1001B0001BB106480649AFF300800648036813B137
:1001C000054B03B1984708BD000000008CDE010814
:1001D000E0000020DC00002000000000154B002B98
:1001E00008BF134B9D46A3F5803A00218B460F466E
:1001F0001348144A121A17F0DBFA0F4B002B00D0E9
:1002000098470E4B002B00D0984700200021044651
:100210000D4600200C490022002317F025F817F0A6
:1002200003FA2046294609F00FF917F03DF800BF00
:100230000000080000000220000000000000000094
:10024000DC000020805C0020D572010841757047F9
:10025000914270B41ADA99421EDC9A42C2BF144627
:100260001A4623465C1A48F68905002CB8BF64423A
:10027000C8F6880585FB04652D19E417C4EB251421
:100280008161C3610262446270BC70479A420C464D
:1002900004DA11462246E0E714460A461946234688
:1002A000E0E700BF00687047437D0A4633B9037D2D
:1002B000032B03D8DFE803F00A11180370474FF44B
:1002C0008060C4F200000C2104F074BA4FF4806026
:1002D000C4F20000002104F06DBA4FF48060C4F253
:1002E0000000042104F066BA4FF48060C4F20000FC
:1002F000082104F05FBA00BF10B5C3698B42044601
:1003000003DD83699942A8BF0B46627D236072B901
:10031000227D032A0BD8DFE802F0022E37404FF48B
:1003200080601946C4F2000004F03CFA2368A26918
:10033000216A9A1A591A002AB8BF52420029B8BF36
:1003400049428A4209DAE1695B1A002BB8BF5B4275
:100350009A420DDB0223636010BDFBDDE2699B1A4C
:10036000002BB8BF5B429942F4DA0123636010BDF1
:100370000023636010BD4FF480601946C4F2000092
:1003800004F012FA2368D2E74FF480601946C4F2F1
:10039000000004F00BFA2368C9E74FF480601946A7
:1003A000C4F2000004F004FA2368C0E738B54B1C1F
:1003B0000D46044614D020460121FFF775FFDDB13C
:1003C000012D1ED02046E169FFF796FF40F61D1073
:1003D00002F0AAFB20460021BDE83840FFF764BFC9
:1003E0004168012912D08D1E18BF01252046012128
:1003F000FFF75AFF002DE3D12046A169FFF77CFFEC
:10040000E4E72046216AFFF777FFDFE7FFF74CFFBD
:10041000D8E700BF406870470175704770B54FF46A
:1004200080648AB0C4F202040220012103F07EFC41
:100430000025022633232046694600938DF8046088
:100440008DF805608DF806508DF8075003F060FBBD
:1004500020462946324603F0BBFB204601213246A6
:1004600003F0B6FB20460421324603F0B1FB3246CE
:100470002046052103F0ACFB3046012103F064FC6B
:100480004FF4806444F62063C4F2000403935423C1
:10049000204602A9ADF808304FF48073ADF8103053
:1004A000ADF80A5004F004F860230126204605A99F
:1004B000ADF8143040F2DC530793ADF81660ADF898
:1004C000205004F053F8204605A904F097F8204680
:1004D00005A904F0E1F8204605A904F029F9204611
:1004E00029462A4604F066F9204604212A4604F0EB
:1004F00061F9204608212A4604F05CF920460C21C7
:100500002A4604F057F92046314604F021F80AB093
:1005100070BD00BF10B50B22044600F1080017F0B3
:10052000A7FA0023E37410BD0830704738B50546BC
:1005300000F1080017F07BFA6C1C2B4620180022F3
:1005400001E0D979521801338342FAD1287D697DBF
:10055000AB694018C018801838BD00BF38B50023FB
:100560008175828203700446082004F06FFF40F218
:1005700077110422054603F055F8656038BD28461A
:1005800005F068F80FF02AFB10B50B22044600F1C5
:10059000080017F06DFA0023E37410BD08307047AF
:1005A000007870474078704738B5027804460D46A9
:1005B00082B901F00DFC02F031FE6068A17DA28AD3
:1005C0002B4603F077F8657002F01AFEBDE838405C
:1005D00001F012BC38BD00BF38B5054600F1080077
:1005E00017F025FA6C1C2B462018002201E0D9795F
:1005F000521801338342FAD1A87DA98AAB69401809
:10060000C018801838BD00BF037A032B06D0044AF7
:1006100002F11000042B18BF1046704701487047C4
:10062000A4910108AC91010870B500238AB0036061
:10063000436003F087F84FF4005601214FF48070B7
:1006400003F090FB0024C4F201064FF440336846E7
:100650000125019300940294039403F0A9F804A9DE
:10066000304604948DF814408DF815500694079484
:1006700008948DF8245003F073F8102130462A4670
:10068000062303F0C3F8284603F0B2F830462946A3
:1006900003F0A4F80AB070BD38B504460D4601F069
:1006A00097FB4FF40050C4F2010003F0FFF84FF441
:1006B0000050C4F20100022103F002F90028F6D034
:1006C0004FF40050C4F2010003F0F6F807EE900A70
:1006D000B8EE677ADFED1E7A27EE277ADFED1D7A16
:1006E00087EE277ADFED1C7AC7EE277A17EE900A9D
:1006F00015F060FB12A3D3E9002315F0FBF915F008
:10070000BFFD15F057FB10A3D3E9002315F0D0FC73
:1007100015F0B6FD07EE100AF3EE097A77EE277AA8
:10072000C4ED007A2DB194ED017A77EEC77AC4ED6D
:10073000007ABDE8384001F05FBB00BFAFF3008036
:1007400052B81E85EB51E83F7B14AE47E17A643F17
:1007500000404E4500F07F4500007A44AFF3008032
:1007600038B504462DED048B0D46FFF795FF204666
:10077000294694ED009AFFF78FFFD4ED008A2046BA
:100780002946FFF789FF2046294694ED008AFFF7A6
:1007900083FF39EE280AD4ED007A30EE080A30EEF5
:1007A000270AF5EE007A20EE270A84ED000ABDEC58
:1007B000048B38BD10B58368044613B1014603228B
:1007C0009847204610BD00BF00887047408870479A
:1007D00010B5037982B06BB9036A04884188C26995
:1007E0005B78808CA218CB18009092B220469BB206
:1007F00001F0BCF802B010BD01234371704700BF87
:1008000030B5037983B002460BB943790BB903B015
:1008100030BDD58C948C5188136A00880095019462
:10082000063200F0B1FFF2E770B504460D461646F9
:10083000FFF7CEFF01232046637125806680BDE867
:100840007040FFF7DDBF00BF70B50446851D0E4642
:10085000FFF7BEFF0123637131461322284617F0CC
:1008600007F9284617F0E3F8236A1B7803FB00F02A
:10087000E0612046BDE87040FFF7C2BF38B50446CE
:100880000D46FFF7A5FF0123204663712571BDE8E2
:100890003840FFF7B5BF00BFF8B51F4640F20C0364
:1008A000BDF81850C2F200030362BDF81C30C584C5
:1008B0000126002504468384058045800671FFF7E4
:1008C000B3FF20463946FFF7BFFF2046667125710A
:1008D000FFF796FF2046F8BD30B590F83C30B0F8F1
:1008E0004050B0F84210B0F8442083B043B9848C33
:1008F000B0F846300094284601F012F803B030BD3D
:10090000C48FB0F846300094284601F009F8F5E7A6
:1009100080F83C10FFF7E0BF10B50446FFF770FF0A
:100920002046BDE81040FFF7D7BF00BF30B587B005
:100930008B68002404940546002B23D0CA680493D6
:1009400002AC059220460222984794E8030005F184
:1009500028038DE8030093E8030084E803009DE882
:10096000030083E8030004982B6B05996A6B0493DA
:100970002863059269631BB12046214603229847EC
:1009800007B030BD02ACE0E7049B1BB12046214616
:10099000032298470FF022F908B5036B13B1436B9C
:1009A0002830984708BD00BF10B5044690F8543071
:1009B000B4F95810B0F95600B4F95A206BB9A38CA9
:1009C00001F090F8B4F95600B4F95810B4F95A206F
:1009D000E38CBDE8104000F0E3BFB4F85C30BDE844
:1009E000104001F07FB800BF10B50446FFF7DCFFF0
:1009F0002046BDE81040FFF78FBF00BF80F85410BD
:100A0000FFF7D2BFF0B583B00288076E416DC66DA7
:100A1000438800250446806D0095D51CD219571BCC
:100A2000761A07FB06F6411A03F117071C3396FBEB
:100A3000F1F6A8B2B9B292B29BB200F097FF20884B
:100A40006388E78CAD19266E0097C21C03F1140170
:100A500092191E3389B292B29BB200F061FF638893
:100A60002088B4F86420033003F117011C3300928E
:100A700080B289B2AAB29BB200F078FF03B0F0BD99
:100A8000C165FFF7BFBF00BF41658265704700BF0A
:100A9000A0F86410FFF7B6BFF0B54FF4006591B051
:100AA000C4F20205012104200C46022603F03EF99F
:100AB000C023284603A903938DF810608DF81340D6
:100AC00003F026F828460621032203F081F80322CA
:100AD000284607214FF4806503F07AF8C4F2010537
:100AE0003046214603F03EF9002732464FF4FA7EA5
:100AF000334628462146CDF838E0ADF83470ADF8DD
:100B00003C70ADF8367003F067FE28460DA903F07F
:100B1000CFFC2846214603F01BFD2846FA2103F0AE
:100B200013FD2046214603F001F910A9384641F88B
:100B30002C6DC4F202008DF818708DF81B4002F085
:100B4000E7FF4FF48040214603F00CF92146384678
:100B500003F092FC3D4607A8082707968DF8205021
:100B60008DF821708DF8224002F0B0FE072301A815
:100B70008DF804308DF805508DF806408DF807404B
:100B800002F0A0FD1020214603F0D0F810A94FF488
:100B900070564FF4805041F81C6DC4F202008DF87D
:100BA00028508DF82B4002F0B3FF4FF480402146CF
:100BB00003F0D8F804200D2103F05EFC04200C2182
:100BC00003F05AFC04200B2103F056FC0A210420F8
:100BD00003F052FC0BA80B968DF830508DF8317055
:100BE0008DF8324002F072FE28230DEB07008DF8DD
:100BF00008308DF809508DF80A408DF80B4002F04E
:100C000061FD40F22813C2F200031C6011B0F0BD78
:100C10004FF4806008B5C4F2010003F097FCFA2895
:100C200021D84FF48060C4F2010003F08FFCF92852
:100C300008D94FF48060C4F20100FA21BDE80840F1
:100C400003F082BC00F07AFA0F4B18604FF480601A
:100C5000C4F2010003F07AFC0C4B1A68C0F1FA00F0
:100C6000121A1A60E5E700F069FA074B18604FF4B2
:100C70008060C4F2010003F069FC044B1A68FA3A80
:100C800010181860D5E700BF2C01002008010020D3
:100C900070B40E4D0E4E0F4B286831681C68034629
:100CA000012B0CDD023B0919184683EAE372A2EB23
:100CB000E372012AF4DC3160286070BC70475A1C72
:100CC000F3DA0233091B1846EFE700BF08010020E2
:100CD000100100202801002010B582B000249B20C4
:100CE0001921F0234FF4A072009400F03FFE00940D
:100CF0008720DC219222EE2300F038FE02B010BDE6
:100D000000B583B00021009187204FF4A072172313
:100D100000F02CFE03B000BD10B5002082B000F042
:100D2000E5FB7821FA226FF063004FF6FF7300F0C5
:100D30006BFF4FF6FF7417210B4600204FF4A07293
:100D4000009400F063FD18210B4600204FF4A072C0
:100D5000009400F05BFD7821FA2200236FF065001B
:100D600000F052FF6FF077007821962240F21D5379
:100D700002B0BDE8104000F047BF00BF10B582B020
:100D8000002420462146F02300944FF4A07200F086
:100D9000EDFD40F21D5408200146E8234FF49C72FB
:100DA000009400F0BDFD09200094014640F2371286
:100DB000E72300F0B5FD02B010BD00BF10B582B052
:100DC00000248720214617234FF4A072009400F0DE
:100DD000CDFD4FF6FF738DE8180049F2BC1240F2CA
:100DE0000C03AA202146C0F60102C2F2000300F063
:100DF000CBFC02B010BD00BF2DE9F04F8BB0884294
:100E00000790089173D0034648330693203B049023
:100E100009930799049B069A5B1A059305999B18F9
:100E200089585B680191994202934AD001F14803C5
:100E3000009301F128038A460393019B0099C3EBB9
:100E40000A0909EB010359F801605F68BE4221D02D
:100E5000344606F1480506F12808C6EB040B0BEBF7
:100E600005035BF805005968FFF7C6FF5BF805004E
:100E700008B104F0EFFBC344DBF8083023B104F100
:100E800028000146032298475434A742E5D1009B2D
:100E900059F8036016B1304604F0DCFB039B99441B
:100EA000D9F8083023B10AF12800014603229847F7
:100EB000029B0AF1540A5345BFD10599069BCB58B2
:100EC0000193019B13B1184604F0C4FB0599099ADC
:100ED0008B189B682BB1049901F12800014603226D
:100EE0009847049B089954339942049391D10BB0CD
:100EF000BDE8F08F10B50446806CE16CFFF77CFF15
:100F0000A06C08B104F0A6FB236B23B104F1280008
:100F1000014603229847204610BD00BF2DE9F04747
:100F200090E88001474582461BD03D4607F14806C0
:100F300007F12809EC1BA319A0595968FFF75CFFBA
:100F4000A05908B104F086FB4C44A36823B105F115
:100F500028000146032298475435A845EAD1DAF81B
:100F6000007017B1384604F075FB5046BDE8F087B5
:100F7000F0B583B00446BDF82070BDF8245000974A
:100F800001950E461546FFF787FCE369E787DF1CEE
:100F9000F01E0023E91E226AA4F84000F61923631C
:100FA000A364E364236584F83C30A4F84210A4F8F9
:100FB000446053780333ED18A4F846502046FFF7F9
:100FC0008BFC204603B0F0BD04F14800FFF7A6FFFC
:100FD000236B23B104F128000146032298470EF049
:100FE000FDFD00BF70B582B01646BDF81840BDF8D3
:100FF0001C500094019504460D46FFF7B9FF0023ED
:1010000040F21D52206AA4F864206365E3656422FF
:101010008B23A265236643780F33F6189135A4F825
:101020004660A4F844502046FFF7ECFC204602B08E
:1010300070BD2046FFF75EFF0EF0D0FD70B582B0A8
:101040000D46BDF81810BDF81C600091044605F16E
:101050001E01019689B21646FFF78AFFE369213324
:1010600005F10A00EA1EED184FF6E07306F10901DA
:10107000A4F85C30033E0823A4F85600A4F85A30C4
:10108000A4F85810A4F84020A4F84260A4F84450F2
:101090002046FFF789FC204602B070BD2046FFF7CE
:1010A00029FF0EF09BFD00BF10B440F21413C2F2F2
:1010B000000340F2B57140F2000200241846C0F669
:1010C0000001C2F200029C6010BC0EF082BD00BFA5
:1010D00000B5012085B0014602F036FE4FF0FF3327
:1010E00002935323ADF804304FF4807301A9ADF897
:1010F0000C304FF080400023ADF8063003F0D8F9F3
:101100004FF08040012103F023FA05B000BD00BF7D
:1011100038B505464FF0804003F018FA04464FF00A
:10112000804003F013FA001BA842F8D938BD00BF75
:101130004FF47A7303FB00F0FFF7EABF08B54FF0F6
:10114000804003F003FA44F6D353C1F26203A3FBD9
:101150000020800908BD00BF4FF0804003F0F6B9C1
:10116000FFF7B6BF10B504464FF46050C4F200005C
:10117000022103F07BF90028F6D04FF46050C4F24E
:101180000000214603F070F94FF46050C4F20000F3
:10119000012103F06BF90028F6D04FF46050C4F23F
:1011A0000000BDE8104003F05BB900BF38B54FF454
:1011B0008064C4F2020405464FF48051204602F0D8
:1011C00005FD20464FF4006102F000FD2846FFF7C0
:1011D000C9FF20464FF40061BDE8384002F0F4BC7E
:1011E00038B54FF48064C4F2020405464FF48051D0
:1011F000204602F0E9FC20464FF4006102F0E6FCD4
:101200002846FFF7AFFF20464FF40061BDE83840A5
:1012100002F0DABC10B500F0DBFD4FF48060C4F2E0
:1012200002004FF4806102F0CFFC0120FFF7BEFF07
:1012300048F28044C0F21E04013CFDD1CB20FFF7F0
:10124000B5FF3920FFF7CCFF2C20FFF7C9FF204660
:10125000FFF7C6FF3420FFF7C3FF0220FFF7C0FFF0
:10126000CF20FFF7A3FF2046FFF7BAFFC120FFF70B
:10127000B7FF3020FFF7B4FFE820FFF797FF852086
:10128000FFF7AEFF2046FFF7ABFF7820FFF7A8FF80
:10129000EA20FFF78BFF2046FFF7A2FF2046FFF76B
:1012A0009FFFED20FFF782FF6420FFF799FF0320E7
:1012B000FFF796FF1220FFF793FF8120FFF790FFC3
:1012C000F720FFF773FF2020FFF78AFFC020FFF70A
:1012D0006DFF2320FFF784FFC120FFF767FF102079
:1012E000FFF77EFFC520FFF761FF3E20FFF778FF85
:1012F0002820FFF775FFC720FFF758FF8620FFF76C
:101300006FFF3620FFF752FF4820FFF769FF3A20B2
:10131000FFF74CFF5520FFF763FFB120FFF746FFB3
:101320002046FFF75DFF1820FFF75AFFB620FFF7B2
:101330003DFF0820FFF754FF8220FFF751FF2720D1
:10134000FFF74EFFF220FFF731FF2046FFF748FF7F
:101350002A20FFF72BFF2046FFF742FF2046FFF72A
:101360003FFF2046FFF73CFFEF20FFF739FF2B2020
:10137000FFF71CFF2046FFF733FF2046FFF730FF43
:101380000120FFF72DFF3F20FFF72AFF2620FFF760
:101390000DFF0120FFF724FFE020FFF707FF0F20DC
:1013A000FFF71EFF3120FFF71BFF2B20FFF718FF71
:1013B0000C20FFF715FF0E20FFF712FF0820FFF7A4
:1013C0000FFF4E20FFF70CFFF120FFF709FF37203A
:1013D000FFF706FF0720FFF703FF1020FFF700FFCE
:1013E0000320FFF7FDFE0E20FFF7FAFE0920FFF7AE
:1013F000F7FE2046FFF7F4FEE120FFF7D7FE204678
:10140000FFF7EEFE0E20FFF7EBFE1420FFF7E8FEDD
:101410000320FFF7E5FE1120FFF7E2FE0720FFF7AC
:10142000DFFE3120FFF7DCFEC120FFF7D9FE4820A8
:10143000FFF7D6FE0820FFF7D3FE0F20FFF7D0FE00
:101440000C20FFF7CDFE3120FFF7CAFE3620FFF754
:10145000C7FE0F20FFF7C4FE1120FFF7A7FE44F2DE
:101460004023C0F20F03013BFDD12920FFF79EFE70
:101470002C20FFF79BFE00F0BFFC10BDF8B507461F
:101480002A200D4616461C46FFF790FE380AFFF745
:10149000A7FEF8B2FFF7A4FE300AFFF7A1FEF0B2F4
:1014A000FFF79EFE2B20FFF781FE280AFFF798FE2C
:1014B000E8B2FFF795FE200AFFF792FEE0B2BDE822
:1014C000F840FFF78DBE00BF10B50B46144602462C
:1014D000FFF7D4FF2C20FFF769FE200AFFF780FEFC
:1014E000E0B2BDE81040FFF77BBE00BF70B50E4B09
:1014F0001A885B880546013A0020013B014692B2FA
:101500009BB2FFF7BBFF2C20FFF750FE2E0A4FF4D3
:101510009634EDB23046FFF763FE2846FFF760FED3
:10152000013CF7D170BD00BF745C00202DE9F04193
:101530004FF480658AB0C4F2020502200121002424
:1015400002F0F4FB01264FF480534FF003082846C5
:1015500001A901938DF809808DF808608DF80A4083
:101560008DF80B4002F0D4FA0220314602F0DEFB87
:101570004FF40067284601A9019702F0C9FA02203A
:10158000314602F0D3FB4FF48063284601A9019352
:101590008DF80B6002F0BCFA3946284602F014FBC5
:1015A0004FF48040314602F0CFFB0220314602F07A
:1015B000BDFB0D210522284602F00AFB0E21052263
:1015C000284602F005FB05220F21284602F000FB09
:1015D0000AA94FF460434FF4605741F81C3DC4F230
:1015E0000007022328468DF810308DF813308DF84F
:1015F00012408DF8118002F08BFA384602F0C2FEDC
:101600004FF40073ADF81E300723384605A9ADF836
:1016100024304FF48273ADF81630ADF81440ADF8B5
:101620001840ADF81A40ADF81C40ADF82040ADF8B8
:10163000224002F0DFFE3146384602F003FFFFF79A
:10164000E9FD4FF6FF70FFF751FF45F67042C2F219
:10165000000245F67443C2F2000345F67A41C2F235
:1016600000011480F0221A804FF4A0720C805A807E
:101670001E710AB0BDE8F08110B504463620FFF7B0
:1016800095FD84B1012C1ED0022C20D0032C16D045
:10169000012C0BD9104B4FF4A0721A80F0225A8003
:1016A00000221A7110BD5820FFF79AFD0A4BF02254
:1016B0001A804FF4A0725A8001221A7110BDE820DE
:1016C000FFF78EFDE6E78820FFF78AFDEEE728208A
:1016D000FFF786FDDEE700BF745C00202DE9F04FC8
:1016E0001E46DFF8A0802548B8F800303178008821
:1016F00083B05C188442BDF830A0BDF8349008DD9A
:101700001F4974780888002320180880A8F8003042
:101710003178707860B3203ADFF864B00192002528
:10172000019A02FB0054726832F81470E9B1002487
:10173000BBF8001007FA04F212F4004F03EB0400A8
:1017400014BF6918691880B21BBF181989B289B211
:1017500080B24A4618BF5246FFF7B6FE3178B8F855
:1017600000300134A142E3D870780135A842D7D8BF
:10177000CB18A8F8003003B0BDE8F08F745C0020EF
:101780007A5C0020705C00202DE9F04F85B0814626
:1017900003911C4E1C4DBDF83880BDF83C701446BA
:1017A0009B4600F015FB0399A6F800904FF0000A45
:1017B000298022787AB10A2A12D00D2A5B461ED0DF
:1017C000013430882988CDF800800197FFF786FF23
:1017D0002278002AEFD105B0BDE8F04F00F00CBB35
:1017E0002B889BF8012001339B182B8063780D2BED
:1017F00018BFA6F8009002D1A6F800A00134013469
:10180000D7E700BF705C00207A5C002090422DE991
:10181000F0471F4688BF03469046054684BF98465A
:101820001546B94288BF0B460C4684BF3C461F464E
:10183000C5EB08039BB29AB2BDF820608AB1C4EB35
:10184000070A1FFA8AFA1FFA8AF1A9B92846013550
:1018500021463246ADB2FFF737FEA845F6D2BDE8C5
:10186000F0872146013428463246A4B2FFF72CFE09
:10187000A742F6D2BDE8F08712B209B28A4229DD4A
:101880004FEA4A0A1FFA8AFAC3EB0A0345459FB298
:1018900019D08A1A4FEA42091FFA89F905E0013482
:1018A0004F44A845A4B2BFB20DD0284621463246C7
:1018B000FFF70AFE3BB20135002BADB2EFDC574417
:1018C000A845BFB2F1D1284621463246BDE8F047CF
:1018D000FFF7FABDCAEB4303BC421FFA83F8F2D00C
:1018E0008A1A4FEA42094FEA4A0A1FFA89F91FFA8F
:1018F0008AFA06E00135C844ADB21FFA88F8A7425B
:10190000E1D0214628463246FFF7DEFD0FFA88F384
:101910000134002BA4B2EDDCD0441FFA88F8EEE7C6
:101920002DE9F04182B01D46BDF8204007468846AB
:101930000B4600941646FFF769FF384641463A4683
:101940002B460094FFF762FF3046414632462B4655
:101950000094FFF75BFF2946384632462B46089431
:1019600002B0BDE8F041FFF751BF00BF2DE9F041E3
:1019700082B099420C461D4680461746BDF820604D
:101980000AD2214623460134009640463A46A4B284
:10199000FFF73CFFA542F4D802B0BDE8F08100BFDC
:1019A0002DE9F04F95B21C461FFA81F9C5EBC533FE
:1019B00085B01FFA80F85B0005EB09019BB2164663
:1019C000404689B222460393FFF77EFDC5EB09012D
:1019D000404689B22246FFF777FD05EB080080B24A
:1019E00049462246FFF770FDC5EB080080B2494624
:1019F0002246C5F10107FFF767FD002EBFB26EDD7D
:101A00000125B24608EB050C0399ABB21FFA8CFC1A
:101A100017F4004F02936046224601F1020308D1F9
:101A20009BB2DF190AF1FF3A9BB21FFA8AFABFB2E2
:101A300003931FFA8AF606EB090B1FFA8BFB594634
:101A4000CDF804C0FFF740FDC5EB08039BB2184674
:101A5000594622460093C6EB090BFFF735FDDDF82A
:101A600004C01FFA8BFB604659462246FFF72CFD47
:101A7000009B594618462246FFF726FD06EB080B49
:101A800009EB05039BB21FFA8BFB19465846224609
:101A90000093C6EB0806FFF717FD009BB6B2194688
:101AA00030462246FFF710FDC5EB09039BB21946ED
:101AB000584622460093FFF707FD009B2246194631
:101AC0003046FFF701FD029907EB45070FFA8AF24E
:101AD0000BB2013701359A42BFB2ADB292DC05B00C
:101AE000BDE8F08F2DE9F04F94B28EB21F46C4EBE3
:101AF000C43387B01FFA80F9A1195B009BB2154669
:101B0000484689B23A46059304EB090AFFF7DCFC24
:101B1000311BC4F10108484689B23A461FFA8AFAD5
:101B2000C4EB0904FFF7D0FCA4B2504631463A4654
:101B3000FFF7CAFC204631463A46FFF7C5FC00973E
:101B40002046314652463346FFF760FE002D1FFA0D
:101B500088F856DD0124AA46A1B2C4EB090B09EBB3
:101B6000040C049105991FFA8BFB1FFA8CFC18F4E6
:101B7000004F5846624601F1020309D19BB29844D6
:101B80000AF1FF3A9BB21FFA8AFA1FFA88F8059306
:101B90001FFA8AF5A91989B20B460097CDF80CC037
:101BA000FFF734FEDDF80CC00097711B89B2604668
:101BB0000B465A46FFF72AFE05EB090B3119C5EB18
:101BC000090589B21FFA8BFBADB20B4658462A466F
:101BD0000097FFF71BFE311B89B20B462A46009780
:101BE0005846FFF713FE049908EB44080FFA8AF2EF
:101BF0000BB2013408F101089A421FFA88F8A4B226
:101C0000AADC07B0BDE8F08F2DE9F04F85B0550094
:101C10008046039199465442C5F1020500260CE026
:101C2000013605EB46030133E6421CBF2A461D463A
:101C30003AD094422FDB002C33DC08EB0407B7F5D5
:101C4000A07F23DCB8EB040020D4039BCDF80090E8
:101C5000991B21EAE17101EB460BBBF1F00FA8BF24
:101C60004FF0F00B80B21FFA81FA1FFA8BFB51463E
:101C700002465B46FFF7CAFD002F07DDB8B2CDF87C
:101C80000090514602465B46FFF7C0FDAE42C7DA00
:101C90002A469442CFDA013405EB44050135002C85
:101CA000CBDD05B0BDE8F08FAC421D46F3DB002272
:101CB000BFE700BF00F1080343604FF0FF32C3608D
:101CC0000361002382600360704700BF002303614B
:101CD000704700BF43684B609A688A609A68516099
:101CE00099600861036801330360704730B40D6880
:101CF0006B1C18BF00F1080201D10EE01A465368B0
:101D00001C68A542FAD24B6099608A6051600861F4
:101D100003680133036030BC704702695368F2E71F
:101D2000436882689A60836842685A6003695A68A7
:101D3000824204BF82685A6000220261186801383A
:101D40001860704703480068006880F3088862B62E
:101D500000DF00BF08ED00E0DFF80C00016841F48F
:101D6000700101607047000088ED00E04FF0807363
:101D700000E90A00002340F80C3C6FF0020340F831
:101D8000202C40F8243C4438704700BF054B1968AC
:101D90000868B0E8F04F80F309884FF0000080F346
:101DA00011887047003E00204EF60453CEF2000327
:101DB0004FF080521A60BFF34F8FBFF36F8F7047A1
:101DC000EFF311804FF0500181F31188704700202C
:101DD00008B5FFF7F5FF40F21403C2F200031A68DA
:101DE00001321A60BFF34F8FBFF36F8F08BD00BF82
:101DF00080F31188704700BF034B186801381860E2
:101E000000B17047FFF7F4BF14000020EFF3098022
:101E1000114B1A681EF0100F08BF20ED108A20E940
:101E2000F04F10602DE908404FF0500080F311880A
:101E300000F09AFE4FF0000080F31188BDE80840E2
:101E400019680868B0E8F04F1EF0100F08BFB0EC3A
:101E5000108A80F309887047003E002008B5FFF71C
:101E6000AFFF00F007FD30B14EF60453CEF2000391
:101E70004FF080521A600020BDE80840FFF7B8BF5D
:101E800040F25403C2F2000348F2B5121968C1F6D9
:101E90004E32A2FB01314EF21402CEF200024EF29B
:101EA00010034909CEF200030139116007221A60BC
:101EB000704700BF10B54FF46443CEF2000382B008
:101EC0001A7827480192FF221A701B78254A8DF84C
:101ED00003309DF803109DF8033001F0500111709C
:101EE00007221906026038D5062300E00B469DF84C
:101EF00003205200D2B28DF803209DF80320591E12
:101F00001206F3D41B0203F4E063019903604FF45B
:101F10006442CEF200024EF62053CEF20003C9B264
:101F200011701A6842F470021A601A6842F0704226
:101F30001A60FFF7A5FF0C4B00241C60FFF70CFF95
:101F40004EF63473CEF200031A6842F040421A6033
:101F5000FFF7F8FE204602B010BD4FF4E063D4E76F
:101F600034010020300100201400002008B5EFF3F8
:101F700005820F2A08D94EF2F033CEF20003D35C6B
:101F80000A4A12789A420ED84EF60C53CEF200034B
:101F90001A68074B1B6802F4E0629A4200D808BD39
:101FA000FFF70EFFFEE7FFF70BFFFEE73001002013
:101FB00034010020F8B5044600F042FC274A1368BB
:101FC00073B927492748284E036021F0070143F6DB
:101FD000F83581E8210086E80A0001234560136096
:101FE0002746002C33D004F108014B071CBF21F019
:101FF000070108314A1E43F6F6339A422BD81A4C91
:10200000236801E01C4613465A68914202D91A68B7
:10201000002AF7D1134A93421DD01A68276822601C
:102020005A68501A083710280DD95D180E4C686090
:1020300059606E6800E01446226851688E42FAD8F2
:102040002A6025605A68094B19688A1A1A6000F0DC
:10205000B3FC3846F8BD0027F9E700BF483D002033
:1020600048010020403D00203801002018000020D9
:1020700038B50546C8B100F0E3FBA5F1080055F8F6
:10208000044C0A4A00E01A46136859688C42FAD890
:10209000074945F8083C10600B6855F8042C9B185C
:1020A0000B60BDE8384000F087BC38BD3801002027
:1020B0001800002038B50446FFF78AFEA36C002BF9
:1020C00014DD636A93B104F1240507E0A36C013BBE
:1020D000A364A36C002B09DD636A3BB1284600F0C2
:1020E000C3FD0028F2D000F039FEEFE74FF0FF33D8
:1020F000A364FFF781FEFFF76BFE636C002B14DD1A
:10210000236993B104F1100507E0636C013B63643C
:10211000636C002B09DD23693BB1284600F0A4FD68
:102120000028F2D000F01AFEEFE74FF0FF336364AF
:10213000BDE83840FFF760BE30B404686CB1C368D6
:10214000026C45689B18AB42C36024BF2346C46041
:102150000846194630BC15F009BB30BC704700BFBB
:1021600038B51546026C044632B90568002D28D0F2
:10217000A36B0133A36338BD65B9806815F0F6FA27
:10218000A168236C6268CB189342A360F0D32368E4
:10219000A360EDE7C06815F0E9FA226CE3682168F6
:1021A00052429B188B42E3603EBF63689A18E2601C
:1021B000022DDDD1A36B002BDAD0A36B013BA3630F
:1021C000D6E7406800F01CFE6560D1E770B50446B4
:1021D0000E4658B3FFF7FCFDE56B2368206CA36047
:1021E000691E4FF0FF3205FB003500FB0133002173
:1021F000A16365606264E360A26476B923691BB978
:10220000FFF7FAFD012070BD04F1100000F02CFD75
:102210000128F5D1FFF7C8FDF2E704F11000FFF740
:1022200049FD04F12400FFF745FDE9E7FFF7C8FD8C
:10223000FEE700BFF8B505460E461746C0B1502070
:10224000FFF7B8FE044698B105FB06F00130FFF732
:10225000B1FE206048B1E563266420460121FFF706
:10226000B5FF84F84D702046F8BD2046FFF700FF0B
:10227000FFF7A6FDFEE700BF2DE9F04784B0044656
:102280000F4601921D4600287DD0002964D0022D02
:1022900068D0FFF79DFDA26BE36B00269A424FF0DA
:1022A000000804F1100934D3022D32D0DDF804A067
:1022B000BAF1000F63D0002E39D0FFF79DFD00F07A
:1022C000BFFAFFF785FD636C013308BFC4F8448093
:1022D000A36C013308BFC4F84880FFF78DFD02A846
:1022E00001A900F00BFD002842D1FFF771FDA26BA0
:1022F000E36B9A421FD0FFF77FFD2046FFF7DAFE1F
:1023000000F05AFB0126FFF763FDA26BE36B9A42D4
:10231000CAD2204639462A46FFF722FF636A002BBD
:1023200034D1FFF769FD012004B0BDE8F08702A8B1
:1023300000F0D4FCC1E7FFF75FFD4846019900F0CB
:1023400053FC2046FFF7B6FE00F036FB0028D9D13B
:10235000FFF72AFD0126D6E7036C002B97D0FFF785
:102360002FFDFEE7E36B012B93D0FFF729FDFEE77E
:102370002046FFF79FFE00F01FFB0020D4E7FFF789
:102380003BFD5046D0E7FFF71BFDFEE704F12400BC
:1023900000F06AFC0128C4D1FFF706FDC1E700BFC9
:1023A0002DE9F04104460E461746984600282DD0E8
:1023B00000293DD0B8F1020F0FD0FFF7D7FDFFF78E
:1023C000FFFCA26BE36B9342054612D8002428461B
:1023D000FFF70EFD2046BDE8F081E36B012B02D034
:1023E000FFF7EEFCFEE7FFF7C1FDFFF7E9FCA36B8B
:1023F0000546204631464246FFF7B2FEA36C013344
:1024000007D0A36C0133A3640124E0E7FFF7D8FCF5
:10241000FEE7636A0BB90124D9E704F1240000F058
:1024200023FC0028F7D00124002FD0D03C60CEE759
:10243000036C002BBED0FFF7C3FCFEE72DE9F0478D
:1024400084B004460F4601929946002800F090801F
:102450000025002963D0FFF7BBFCA36B4FF00008F9
:1024600004F1240A6BBB019E002E70D0002D52D0C7
:10247000FFF7C2FC00F0E4F9FFF7AAFC636C01333C
:1024800008BFC4F84480A36C013308BFC4F8488077
:10249000FFF7B2FC02A801A900F030FC00284DD1E2
:1024A000FFF796FCA26B1AB3FFF7A6FC2046FFF7D6
:1024B00001FE00F081FA0125FFF78AFCA36B002BD7
:1024C000D1D020463946E568FFF736FEB9F1000F56
:1024D00041D1A26B2368013AA26313B900F046FC14
:1024E00060602369002B46D1FFF786FC01202BE0BA
:1024F000FFF782FC2368CBB10199504600F074FBD2
:102500002046FFF7D7FD00F057FA0028D3D1FFF798
:102510004BFC0125D0E702A800F0E0FBA8E7036C24
:1025200013B1FFF74DFCFEE70D4694E7FFF750FCB3
:10253000606800F02FFCFFF75FFCDDE72046FFF747
:10254000B9FD00F039FA002004B0BDE8F087FFF7CC
:1025500053FC3046F8E7636AE560002BC4D004F111
:10256000240000F081FB0028BED0FFF71DFCBBE774
:10257000FFF726FCFEE704F1100000F075FB0128D0
:10258000B2D1F2E738B504460D46FFF721FC636C83
:10259000013313D0A36C01330DD0FFF72DFCA36BD7
:1025A00023B904F12400294600F044FB2046BDE88D
:1025B0003840FFF77FBD0023A364EEE70023636488
:1025C000E8E700BF10B50E4B0E4A19681268486064
:1025D000904204460BD30C4A106819680431FFF787
:1025E00085FB0A4B1A68944238BF1C6010BD084A2C
:1025F000106819680431BDE81040FFF777BB00BFD1
:10260000003E00201C3E0020603D00201C000020F9
:10261000203E00202DE9F84F0A9D0C9E0746894672
:1026200093469A4600287AD0042D02D9FFF7C8FBBA
:10263000FEE74C20FFF7BEFC0446002800F08C802B
:10264000002E7CD006634FEA8B083046A521424617
:1026500015F0AEF8236B0BF1FF3B03EB8B0323F07C
:10266000070B0026A31919F8062083F8342019F95E
:10267000063001360BB10A2EF4D1002304F104090F
:1026800084F83D304846E562A564FFF71FFB04F17E
:102690001800FFF71BFBC5F10503A3612461646209
:1026A000584639465246FFF761FB0B9B206003B149
:1026B0001C60FFF78DFB3E4B3E4F1A6801321A60DB
:1026C0003A68002A33D0DFF81081D8F8003033B9E7
:1026D0003B68394EDB6A9D4228BF3C6000E0364EC5
:1026E000364837490268E36AD1F800E001320260F7
:1026F000734503EB830088BF0B60226406EB800008
:102700004946FFF7E7FAFFF777FBD8F800301BB12F
:102710003B68DB6A9D4205D80120BDE8F88FFFF7D2
:102720004FFBFEE7FFF740FB0120BDE8F88F3C6060
:102730001B68214E012B13D0DFF89C80D0E74FEAB5
:102740008B084046FFF736FC0646206300287FF4DE
:102750007CAF2046FFF78CFC4FF0FF30BDE8F88FD0
:10276000904608EB880006EB800008F10108FFF7AF
:10277000A1FAB8F1050FF4D1DFF860B0DFF860A07E
:10278000DFF854805846FFF795FA5046FFF792FA63
:102790000C48FFF78FFA0C48FFF78CFA0B48FFF74D
:1027A00089FA0B4BC3F800B00A4BC3F800A097E7B7
:1027B0003C3E0020003E0020983D0020243E0020AA
:1027C000403E0020043E00206C3D00204C3D002097
:1027D000603D0020203E0020643D0020283E002077
:1027E000803D002030B585B00024962200940194ED
:1027F000029403940E480F492346FFF70BFF01286C
:10280000054605D00DB105B030BDFFF7D9FAFEE79A
:1028100000F068FB01280546F4D1FFF7D1FA064B1A
:102820001D60064B1C6005B0BDE83040FFF742BBA1
:102830009D2A000890A60108643D00201C3E00204F
:1028400043F6FC53C2F200031A6801321A60704763
:1028500010B5FFF7BDFA43F61C63C2F200031C6813
:10286000FFF7CAFA204610BD43F63C63C2F20003EC
:10287000186870472DE9F04F454B1B6883B0C3B90A
:10288000444B1A6801321A601B680193D3B1424D60
:102890002B68019A9A422FD2404F414E0024336850
:1028A000DB6A03EB830357F82330012B88BF012435
:1028B00004E03C4B1A6801321A600024204603B041
:1028C000BDE8F08F384B1A681268002A5AD1374990
:1028D00018680C68364A1C60086011680131116084
:1028E0001A681268002A46D12B4D019A4FF0FF3327
:1028F0002B602B689A42CFD3DFF8AC80274F284E4D
:10290000DFF8B0900024D8F800301B681BB94FF0F6
:10291000FF332B60C3E743F66052C2F20002136834
:10292000DB68D3F80CB0019BDBF804200BF1040A40
:102930009342504629D3FFF7F3F9DBF828200BF137
:1029400018000AB1FFF7ECF9DBF82C20D9F80030B9
:1029500002EB82009A42514607EB800088BFC9F81B
:102960000020FFF7B7F93168DBF82C20CB6A9A42D8
:1029700028BF0124C7E71B68074DDB68DB685B687D
:102980002B6085E7FFF71CFAFEE72A6087E700BFA8
:10299000FC3D00201C3E00201C000020983D002033
:1029A000003E0020943D0020603D0020203E00209D
:1029B000183E0020403E00202DE9F84F2F4C2368A0
:1029C00013B9FFF7FDF9FEE7FFF702FA2368013BB1
:1029D00023602468002C4AD1294B1B68002B46D069
:1029E000DFF8ACB0274EDFF8ACA0DFF8AC90D846EB
:1029F0001DE0D8F80C30DD682F1D05F11800FFF739
:102A00008FF93846FFF78CF9EB6A326803EB8300E5
:102A100093420AEB8000394688BF3360FFF75AF9CA
:102A2000D9F80030EA6ADB6A9A4228BF0124DBF851
:102A30000030002BDDD1144D2B6863B12B6853B1EE
:102A4000FFF718FF2B68013B2B602B68002818BF8D
:102A50000124002BF4D1012C0C4B02D01A68012A5E
:102A600005D100221A600124FFF79EF900E000243E
:102A7000FFF7C2F92046BDE8F88F00BFFC3D0020FB
:102A80003C3E0020403E0020943D0020443E00207B
:102A9000043E0020983D0020003E00202DE9F84F24
:102AA0001C4E1D4D1D4CDFF87880DFF87890B24643
:102AB00006E02368376801332360FFF77DFF4FB9D5
:102AC0002B68002BF5D1D9F80030012BF8D9FFF78E
:102AD0006BF9F5E7FFF77CF9DAF80C30D3F80CB0B6
:102AE0000BF10400FFF71CF9D8F8003043F66852E8
:102AF000C2F20002013BC8F800301368013B1360CA
:102B0000FFF77AF9DBF83000FFF7B2FA5846FFF723
:102B1000AFFAD5E76C3D0020683D0020FC3D002069
:102B20003C3E0020983D002010B518B9BDE810408B
:102B3000FFF73AB9094B1A6801321A60084B1C6852
:102B4000084B1B680419181DFFF7EAF82046FFF729
:102B500039FDFFF731FF0028E8D010BDFC3D002013
:102B60001C3E0020003E002008B51A4B1B683BBBF2
:102B7000194B1A491A6802EB820251F822207AB9DD
:102B80001A68184612B91FE00268EAB11A68013AD9
:102B90001A601A6802EB820251F82220002AF3D050
:102BA0001A6802EB820201EB820202F1080153680B
:102BB0005B688B4253600AD0DA68094B1A6008BD23
:102BC000084B01221A6008BDFFF7FAF8FEE75B68C0
:102BD0005360F1E7FC3D0020403E0020983D00207E
:102BE000003E0020443E002038B50D4688B10E4C12
:102BF00021681831FFF77AF820680430FFF790F861
:102C00006A1C09D0094B18682818BDE83840FFF73E
:102C1000D9BCFFF7D5F8FEE7216805480431BDE8C7
:102C20003840FFF757B800BF003E00201C3E002090
:102C30004C3D002038B50D4678B1094C216818315B
:102C4000FFF748F820680430FFF76AF8054B18686A
:102C50002818BDE83840FFF7B5BCFFF7B1F8FEE72C
:102C6000003E00201C3E002038B5C368DC683CB341
:102C700004F118052846FFF753F8134B1B68D3B926
:102C8000251D2846FFF74CF8104AE36A11681048E2
:102C90008B4288BF136003EB830300EB830029465C
:102CA000FFF718F80B4BE06A1B68DB6A984234BFE9
:102CB0000020012038BD08482946FFF70BF8F1E74E
:102CC000FFF77EF8FEE700BFFC3D0020403E0020FD
:102CD000983D0020003E0020043E002008B530B1A1
:102CE000044B1A68044B1B6880E80C0008BDFFF712
:102CF00067F8FEE7183E00201C3E002038B5044669
:102D00000D4620B301B3FFF763F82968114B481C47
:102D10001A6817D01048236800688342636801D09E
:102D20009A4202D2D01A814204D80124FFF764F8F3
:102D3000204638BD8A1AD31820462B60FFF7CEFFF5
:102D40000024F3E70024F1E7FFF73AF8FEE7FFF786
:102D500037F8FEE71C3E0020183E002043F644638F
:102D6000C2F2000301221A60704700BF43F60063FD
:102D7000C2F2000318687047044B186828B1044B6E
:102D80001868002814BF022001207047643D00200D
:102D9000FC3D0020F8B50446A8B1164DC36A2A6868
:102DA000D26A93420FD22A68134ED16A426903EB6A
:102DB000830306EB8303C1F105019A42816103D0CD
:102DC0002B68DB6AC362F8BD071D3846FEF7A8FF13
:102DD0002B680A4ADB6A1168E36203EB83008B42CB
:102DE00006EB8000394688BF1360BDE8F840FEF767
:102DF00071BF00BF003E0020983D0020403E0020F3
:102E000038B50446D8B1C26A836C9A4217D0051D02
:102E10002846FEF785FF0A4AA36C1168E362C3F1F6
:102E200005008B42A061074888BF136003EB830352
:102E300000EB83002946BDE83840FEF74BBF38BDA4
:102E4000403E0020983D0020F8B50E4CFEF7C0FF34
:102E500025681DB1BDE8F840FEF7CEBF0A4F0B4E06
:102E60003846FEF727FF3046FEF724FF084B1F6069
:102E7000084B0A200C212A461E60FFF7DBF9206070
:102E8000E8E700BF783E0020503E0020643E00206E
:102E9000483E00207C3E0020914210B54160006118
:102EA00005D88169D21A8A4211D3012010BD9942F6
:102EB00034BF002401249A4228BF0024002CF4D1FE
:102EC000064B011D1868FEF711FF204610BD044B8C
:102ED000011D1868FEF70AFF002010BD483E0020C3
:102EE0007C3E002000B585B0FFF7AEFF0A4B1B68A3
:102EF00073B1002302228DE80C000293039307486C
:102F000007494FF49672FFF785FB08B105B000BD85
:102F1000FEF756FFFEE700BF783E0020F52F0008C1
:102F200098A6010830B5124D2C6887B0002C1CD033
:102F30000391049205903BB11A46204603A9002351
:102F4000FFF72EFA07B030BD0193FFF715FF019B85
:102F5000012813BF1A4628680A9A28680EBF03A9D9
:102F600003A91346FFF788F9ECE72046EAE700BF1C
:102F7000783E00202DE9F0431C4E83B04FF000084E
:102F8000B1460CE0DB68DC681F68251D2846FEF7AB
:102F9000C7FE636A20469847E369012B0BD033686C
:102FA0001A68002AEED1124A116813600F4B19609B
:102FB00003B0BDE8F083A36907EB030E0021BE4513
:102FC00020463A460B4608D9C4F804E02461D9F8F3
:102FD00000002946FEF78AFEE1E7CDF80080FFF702
:102FE000A1FF0028DBD1FEF7EBFEFEE7483E002004
:102FF0007C3E00202DE9F04F554FDFF858A1DFF857
:10300000588187B04FF0000BB946DAF800301C68E1
:10301000D4F1010438BF002400250CB9DB681D6819
:10302000FFF70EFCFFF714FC3B68984206466FD38F
:1030300084F0010385428CBF002303F00103C9F82B
:103040000000002B54D1D8F80000A91BFFF79AFA12
:10305000FFF7B2FC08B9FEF7A7FE0022D8F800007F
:1030600003A91346FFF7EAF90028CED0059C63694F
:1030700013B1201DFEF754FEFFF7EAFB3B689842B0
:10308000054632D3039E3D60022E24D0032E1ED06F
:10309000002EE2D1049BA169204659182A46FFF769
:1030A000FBFE0128D9D1636A20469847E369012BCA
:1030B000D3D1A269049B0096D218314620463346EC
:1030C000FFF730FF0028C8D1FEF77AFEFEE7204662
:1030D000FEF7CEFFC1E70499A16101B32A4620465D
:1030E00069182B46FFF7D8FEB7E7FFF743FFC9E79C
:1030F000FFF762FCDAF80030DB68DC68201DFEF7C1
:103100000FFEE369012B0DD0636A20469847A4E7C0
:10311000FFF730FFC9F80060FFF74EFC9DE7FEF7B0
:103120004FFEFEE7A1692046691832462B46FFF79D
:10313000B3FE0128E8D10021CDF800B020462A4690
:103140000B46FFF7EFFE0028DED1FEF739FEFEE763
:103150004C3E0020483E0020783E00202DE9F04102
:10316000804686B00F460820012100F0DFFD06A949
:1031700040264FF44060002441F8106DC4F2020074
:103180008DF80C408DF80F4000F0C2FC4FF48040E9
:10319000012100F0E7FD0621032001F06DF9012572
:1031A000102304A804968DF814408DF815308DF87E
:1031B000165000F08BFB172301A88DF804308DF812
:1031C00005408DF806408DF8075043F6B86600F0CC
:1031D00079FA43F6A86443F6846243F69663C2F232
:1031E0000006C2F20004C2F20002C2F20003FF2194
:1031F00086F80080276011701D7006B0BDE8F08170
:1032000043F68462C2F2000243F69663C2F2000300
:10321000FF21117001221A70704700BF43F69663B8
:10322000C2F2000300221A70704700BFF8B5704B5D
:103230001B7803B9F8BD6F4CA3686360FDF78CFF82
:103240006D4BA0601A78002A41D16C4D2A7812F09B
:10325000800F626807D16A490968801A884202D2E1
:1032600001221A70F8BD29782068644B226049B2A7
:103270000131C0EB02025ED0197849B22F2929DC56
:10328000604B614819880068490089B28242198000
:103290009CBF01F00E0119800AD95C480068824287
:1032A0003FD35B48006882423BD841F0010119805E
:1032B000297849B2CA17920F891801F003018A1AB6
:1032C000032A73D02B780133DBB22B70F8BD0022B8
:1032D0001A70F8BD1978302926D04E4B196801EBC9
:1032E000810303EB83039A421BD301EBC103B2EBCF
:1032F000830F16D8484A494B10681C68A042484CB6
:103300006BD0186001232370464C24789C4260D80F
:10331000454C26782EB901232370444B1B689847EF
:103320002670FF232B70F8BD374909688A42C9D936
:10333000FF221A70F8BD40F688639A427FF67AAF92
:1033400041F28503C0F64203A3FB0213D21A03EB3A
:1033500052031B0903EB430103EBC3064CF6CD42BA
:103360002C4F03EB86069C001801C3EBC101CCF681
:10337000CC423B60A2FB0434A2FB0030A2FB013133
:10338000A2FB0632264E00233370244E3360224EB9
:1033900033601B4BE4081C601B4BC00818601B4BC0
:1033A000C90819601A4BD2081A608BE71A4A1B88A1
:1033B000116803F00F0301EB4101062B116013D0DC
:1033C0000A2B0ED0052B3FF47DAF0C4BFF221A7059
:1033D000F8BD002313602B70F8BD23780133DBB2F6
:1033E00091E7013111606DE7023111606AE700BFBA
:1033F000963E0020983E0020803E0020843E002023
:10340000AC3E0020823E00208C3E0020A43E0020E6
:10341000B43E0020903E0020883E0020B03E0020B8
:10342000953E0020B83E0020943E0020A83E00209B
:1034300000B5012083B0014600F078FC4FF4004253
:1034400000200092012203468DF80420C4F20200FD
:10345000032269468DF805208DF806308DF8073077
:1034600000F056FB03B000BD2DE9F84F20F07F407F
:103470004AF6AB250E4620F470000C214FF00008F0
:10348000CAF6AA25A5FB00435B0803EB43040139F8
:10349000001B89B240EA880818460029F2D102F0E0
:1034A00007034FF0010A0AFA03FA1FFA8AFABAF17F
:1034B000000F00F08280C6EB461B06EB46078946EC
:1034C00045460C2426E000F07FFB3046FDF720FE49
:1034D00000204FF40041C4F2020000F077FB3846B0
:1034E000FDF716FE00204FF40041C4F2020000F088
:1034F0006BFB3046FDF70CFE0020C4F202004FF4D7
:10350000004100F063FB3846FDF702FE013CA4B227
:10351000AD08C4B305F003030020012B4FF40041B4
:10352000C4F202004BD0CED3022BEFD100204FF4D7
:103530000041C4F2020000F047FB3046FDF7E8FD11
:1035400000204FF40041C4F2020000F03FFB384677
:10355000FDF7DEFD00204FF40041C4F2020000F050
:1035600033FB3846FDF7D4FD0020C4F202004FF4CF
:103570000041013C00F02AFBA4B23046FDF7C8FD33
:10358000AD08002CC6D100204FF40041C4F2020067
:1035900000F01AFB3046FDF7BBFD00204FF4004160
:1035A000C4F2020009F1010900F010FB1FFA89F9C9
:1035B0005846FDF7ADFDCA4582D8BDE8F88F00F04A
:1035C00003FB3846FDF7A4FD00204FF40041C4F290
:1035D000020000F0FBFA3046FDF79AFD00204FF4A0
:1035E0000041C4F2020000F0EFFA3846FDF790FD0A
:1035F00000204FF40041C4F2020000F0E7FA304628
:10360000FDF786FD82E700BF10B50446FFF706FE12
:103610002046E10DC4F30252FFF726FFBDE810403B
:10362000FFF7EEBD10B5044601608280FFF700FF92
:10363000204610BDF0B486B04139013AADF1020424
:10364000CDB20DF1060791B2224615F0010F0CBF65
:103650000026022622F8026F11F0010F0CBF00268F
:1036600002266D084908BA421681EED100220221D5
:10367000934214BF0B461346ADF816300DEB020310
:10368000ADF81210ADF81410ADF8102003F11601CA
:10369000134634F8022F03EB43038C421344F8D152
:1036A00001688288C80540EA0250184306B0F0BCA1
:1036B000704700BF08B5FFF7BDFFBDE80840FFF742
:1036C000A3BF00BF30B4C3787BB902784FF4614325
:1036D0005109CEF2000302F01F022031012000FA4E
:1036E00002F243F8212030BC70474FF46D43CEF214
:1036F00000034578DA6884780378D243C2F3022263
:10370000C2F10401C9B205FA01F10F2545FA02F22E
:10371000C9B222400A4303F1604303F56143120139
:10372000D2B283F8002302784FF461435109CEF2FC
:10373000000302F01F02012000FA02F243F82120E8
:10374000D1E700BF08B501214FF4807000F026FBDF
:103750004FF480700021BDE8084000F01FBB00BF9F
:10376000F0B444680B680A7924F0407424F480743F
:10377000234343EA02234360CD680C6987688A6863
:103780004E794FF2FD732C43CCF2FF0322433B40B2
:10379000134343EA460383600B7DC26A013B22F474
:1037A0007002DBB242EA0353C362F0BC704700BF51
:1037B00070B44FF40C5290E84200C4F201028568E4
:1037C0005468C06843F2E0033143CFF6FC732943E9
:1037D000234001430B43536070BC7047836819B9A1
:1037E00023F001038360704743F001038360704757
:1037F0004FF40C53C4F201035A6818B922F40002C2
:103800005A60704742F400025A607047092970B448
:1038100021D901EB41041E3CC668072505FA04F5D1
:1038200026EA050503FA04F445EA0403062AC36000
:1038300020D90C2A02EB82022BD9413AC46A1F23F9
:1038400003FA02F324EA030301FA02F143EA010254
:10385000C26270BC7047066901EB4104072505FA96
:1038600004F526EA050503FA04F445EA0403062AEA
:103870000361DED8013A02EB8202446B1F2303FA94
:1038800002F324EA030301FA02F143EA010242636C
:10389000DFE7233A046B1F2303FA02F324EA03034E
:1038A00001FA02F143EA01020263D2E7836843F0BE
:1038B00080438360704700BFC06C80B2704700BF18
:1038C000036819420CBF002001207047837910B4AF
:1038D000002B2CD04FF47053C4F201030268196816
:1038E00021EA02021A605968026821EA02025A605B
:1038F0000279016802F1804202F59E321468214388
:1039000011609968026821EA02029A60D968026827
:1039100021EA0202DA604279102A14D002F18042D0
:1039200002F59E32036811680B43136009E00379C6
:10393000016803F1804303F59E331A6822EA01020D
:103940001A6010BC7047996802680A439A60D96887
:1039500002680A43DA60F4E74FF47053C4F20103DB
:103960001A685B69034004D010420CBF002001209C
:1039700070471846704700BF4FF47053C4F20103FC
:10398000586170474FF47053C4F202031A69002A59
:1039900009DA40F2231148F6AB12C4F26751CCF6B3
:1039A000EF5259605A6070474FF47053C4F20203EB
:1039B0001A6942F000421A61704700BF4FF4705319
:1039C000C4F20203D86070474FF47053C4F202038C
:1039D000DA68D0030AD4DA68D10601D50520704729
:1039E000DA6812F0EF0F03D006207047012070470D
:1039F000DB6813F0020F0CBF08200720704700BFE0
:103A000000B583B008238DF80730FFF7DDFF8DF890
:103A100007009DF80730012BF7D09DF8070003B091
:103A200000BD00BF70B505460E46FFF7E9FF082848
:103A300000D070BD4FF47054C4F20204236923F423
:103A40004073236123692361236943F001032361E8
:103A50002E70FFF7D5FF236923F00103236170BDAA
:103A600070B505460E46FFF7CBFF082800D070BDA5
:103A70004FF47054C4F20204236923F440732361A9
:103A8000236943F400732361236943F00103236135
:103A90002E60FFF7B5FF236923F00103236170BD9A
:103AA00070B505460E4651B1012908BF4FF4807626
:103AB00005D0022914BF4FF440764FF40076FFF78B
:103AC0009FFF082800D070BD4FF47054C4F2020468
:103AD000236923F44073236121690E43266123691E
:103AE00023F0F8032361236943F002031D4325619A
:103AF000236943F480332361FFF782FF236923F0B6
:103B000002032361236923F0F803236170BD00BF22
:103B100000222DE9F00113460126032703E00133BB
:103B20000232102B2CD00D6806FA03F42540A54272
:103B3000F5D1D0F800C007FA02F4E44304EA0C0C13
:103B4000C0F800C091F804C0D0F800800CFA02FC64
:103B50004CEA080CC0F800C091F804C00CF1FF3C1E
:103B6000BCF1010F0FD9C5682C40C460CC79C56881
:103B700004FA02F401332C430232102BC460D2D178
:103B8000BDE8F0017047D0F808C004EA0C0CC0F89A
:103B900008C091F805C0D0F808800CFA02FC4CEA85
:103BA000080CC0F808C0D0F804C02CEA0505456030
:103BB00091F806C045680CFA03FC1FFA8CFC4CEA2D
:103BC00005054560CFE700BF01837047418370471B
:103BD000CB08083301F0070130B4890050F82350B6
:103BE0000F2404FA01F425EA040440F8234050F8B5
:103BF000234002FA01F2144340F8234030BC7047DE
:103C00002023C4F20E231860704700BF43F67003F0
:103C1000C4F20203002201281A701A7004D004288A
:103C200001D105221A7070471870704710B44FF414
:103C30006053C4F202039A6802F00C02042A22D0F4
:103C4000082A26D04FF41052C0F2F40202604FF45A
:103C50006053C4F2020320499C68C4F303140C5D52
:103C600022FA04F242609C68C4F382240C5D22FABA
:103C700004F484609B68C3F34233CB5C22FA03F202
:103C8000C26010BC70474FF49052C0F27A020260DA
:103C9000DDE75C68596814F4800F5C6815BF4FF469
:103CA00090534FF41053C0F27A03C0F2F40301F0C2
:103CB0003F01B3FBF1F24FF46053C4F20203C4F3CB
:103CC00088145B68C3F30143013302FB04F25B0019
:103CD000B2FBF3F20260BAE72000002000F4407368
:103CE000B3F5407F0CD14FF46053C4F2020320F0CF
:103CF00070419A6821F4407122F4F8120A439A60E4
:103D00004FF46053C4F2020300051A6F000D104314
:103D10001867704740F63C63C4F247231860704749
:103D20004FF46463C4F24723186070474FF4605344
:103D3000C4F202031A6B19B922EA00001863704733
:103D400010431863704700BF4FF46053C4F202037E
:103D50001A6C19B922EA00001864704710431864FD
:103D6000704700BF4FF46053C4F202035A6C19B994
:103D700022EA00005864704710435864704700BF3F
:103D80004FF46053C4F202031A6A19B922EA000020
:103D90001862704710431862704700BF4FF46053B9
:103DA000C4F202035A6A19B922EA00005862704745
:103DB00010435862704700BF4309012B0ED0022BFD
:103DC0004FF46053C4F202030CBF1B6F5B6F00F033
:103DD0001F0023FA00F000F0010070474FF4605319
:103DE000C4F202031B68F2E700217F22FF2380E870
:103DF0000E0070474FF42053C4F2000320B9CA22CA
:103E00005A6253225A627047FF225A62704700BFBB
:103E100082B04FF420510023C4F200010193CB681B
:103E2000580617D44FF0FF33CB6000E04AB9CA6898
:103E3000019B01330193019BB3F5803F02F04002E7
:103E4000F4D14FF42053C4F20003D868C0F38010BB
:103E500002B070470120FBE738B54FF42054C4F29C
:103E60000004CA236362532363620546FFF7D0FF51
:103E700098B1A36823F04003A360A2682B681343A2
:103E8000A360AB68236123696A6843EA0243236144
:103E9000E36823F08003E36001204FF42053C4F271
:103EA0000003FF225A6238BD82B04FF42051C4F2A1
:103EB000000100230193CA234B6253234B62CB685A
:103EC00023F0A003CB6000E04AB9CA68019B01332C
:103ED0000193019BB3F5003F02F02002F4D14FF4AF
:103EE0002053C4F20003FF22D8685A62C0F3401086
:103EF00002B0704738B54FF42053C4F200039B68FA
:103F000090BB13F0400408BFCC705AD10B7800224C
:103F1000092B07D90A3BDBB20132092BD2B2F9D8FF
:103F20001201D2B2487813431B04092853D9002246
:103F30000A38C0B201320928D2B2F9D81201D5B27A
:103F40008A78284300020021092A07D90A3AD2B206
:103F50000131092AC9B2F9D80901C9B21C4344EA9E
:103F600000050A4315430CE013F0400308BFCB7073
:103F70002ED14D7808788A782D0245EA0045154300
:103F80001D434FF42054C4F20004CA236362532338
:103F90006362FFF73DFF68B105F07F3525F0FE4510
:103FA0002560E36823F08003E360FFF77DFF0030C6
:103FB00018BF01204FF42053C4F20003FF225A62BD
:103FC00038BDCC780B7824040022092BA2D8A9E7AD
:103FD000CB781B04CDE70025B2E700BFF0B44FF467
:103FE0002053C4F200031B68C3F30544C3F3062245
:103FF00003F4800CE7B2D6B203F07F054FEA1C4C05
:104000000F704E708D7081F803C0B8B93F09360942
:104010002D0907EB870704F00F0406EB860602F074
:104020000F0205EB850503F00F0304EB470702EBD6
:10403000460603EB45050F704E708D70F0BC70475F
:1040400038B5002837D14B7803F01002D2B222B134
:1040500003F0EF030A33DBB24B70CA780020092A61
:1040600007D90A3AD2B20130092AC0B2F9D8000100
:10407000C0B202431204092B47D900200A3BDBB22D
:104080000130092BC0B2F9D80001C5B288782B43A2
:104090001B020024092807D90A38C0B201340928B4
:1040A000E4B2F9D82401E4B20D7842EA45351D4363
:1040B0002043054309E04D78CA788B7808782D02B3
:1040C00045EA02451D4345EA40354FF42054C4F209
:1040D0000004CA23636253236362FFF799FE68B149
:1040E00025F07F4525F0C0056560E36823F0800377
:1040F000E360FFF7D9FE003018BF01204FF42053D2
:10410000C4F20003FF225A6238BD0025BEE700BF9B
:10411000F0B44FF42053C4F200035B68C3F30744C8
:10412000C3F30422E6B2D7B203F03F05C3F3423C27
:10413000CE704F708D7081F800C0B8B93F09360954
:10414000B8002D0906EB860604F00F04C71902F02B
:104150000F0205EB850503F00F0304EB460602EBA7
:10416000470703EB4505CE704F708D70F0BC70476C
:104170004FF42053F0B4C4F20003002848D19E68E5
:1041800016F0400608BFD6706CD113780024092BB6
:1041900008D900200A3BDBB20130092BC0B2F9D8A4
:1041A0000001C4B2507823431B04092864D90024B9
:1041B0000A38C0B201340928E4B2F9D82401E7B2C0
:1041C0009478384307020025092C07D90A3CE4B249
:1041D0000135092CEDB2F9D82D01EDB2107B2C433D
:1041E0000025092807D90A38C0B201350928EDB2DF
:1041F000F9D82D01EDB2D2F804C092684CEA02025F
:10420000164333431F433C43284344EA006014E011
:10421000986810F0400008BFD0702AD157689368A2
:10422000967815785478127B3B43334343EA054331
:1042300043EA042343EA026318434FF42053C4F2D1
:104240000003CA225A625322B1F5807F5A620CBF22
:10425000D86118624FF42053C4F20003FF225A625F
:10426000F0BC7047D678137836040024092B90D818
:1042700098E7D0780004D1E70027A1E782B04FF497
:104280002053C4F2000300220192CA225A62532230
:104290005A629A68002921D122EA00029A60000A33
:1042A000194600E04AB9CA68019B01330193019B9A
:1042B000B3F5803F00EA0202F4D14FF42053C4F278
:1042C0000003DB6803420CBF002001204FF42053A1
:1042D000C4F20003FF225A6202B070471043986094
:1042E0000120F3E74FF42053C4F20003CA225A62BC
:1042F00053225A629A6889B920F0040122EA010225
:104300009A601A6C00F0040022EA000018644FF46E
:104310002053C4F20003FF225A62704720F00401C8
:104320000A439A601A6C00F0040010431864EEE728
:1043300010B44FF42053C4F200031A6C9968DC687F
:1043400002F0040202EAD03200EA0103134308BF7C
:10435000184605D0A4B214EA10140CBF00200120A6
:1043600010BC70474FF42053C4F20003C0F30F1089
:10437000D96840F0800201F0800161EA0202DA604F
:10438000704700BF08B54FF44053C4F20103984290
:1043900018D04FF46053C4F2000398421ED04FF47B
:1043A0007053C4F20003984200D008BD01214FF4BD
:1043B0000040FFF7E5FC4FF400400021BDE8084055
:1043C000FFF7DEBC01214FF48050FFF7E7FC4FF40C
:1043D00080500021BDE80840FFF7E0BC01214FF408
:1043E0008040FFF7CDFC4FF480400021BDE808403D
:1043F000FFF7C6BC2DE9F0030B88B1F80290B1F8C5
:104400000480B1F806C00F894E898D890288CC8955
:1044100049EA030343EA080343EA0C033B433343FB
:104420002B4302F44152234313439BB20380838BFB
:1044300023F400631B041B0C83830B8A0382BDE8F7
:10444000F0037047038829B923F040031B041B0CB9
:10445000038070479BB243F040030380704700BF66
:10446000808980B2704700BF8181704703891942FB
:104470000CBF00200120704730B48A084FF460530D
:10448000C4F20103023201F0030153F82250890003
:104490000F2404FA01F425EA040443F8224053F8F7
:1044A000224000FA01F0044343F8224030BC704738
:1044B000002270B44FF48064C4F201020388C4F295
:1044C0000104904218BFA0429BB214BF00220122F7
:1044D00008D04FF48064C4F20004B0F1804F18BFDC
:1044E000A04223D14FF68F754C881D4045EA040346
:1044F0004FF4A0564FF48055C4F20005C4F20006F4
:10450000B04218BFA8421FBF0D894FF6FF441C40A0
:1045100044EA050303804B68C3620B8803850AB134
:104520008B7A03860123838270BC70474FF4406509
:104530004FF40064C4F20005C4F20004A04218BFA6
:10454000A842D5D1CEE700BF41627047406A7047AC
:10455000038829B923F001031B041B0C0380704757
:104560009BB243F001030380704700BF038C23F02C
:1045700001031B041B0C03842DE9F001038C8D89BE
:1045800084884F88028BB1F800C02F4322F0730259
:10459000002523F002034FF4806612041B04C4F2CA
:1045A0000106C4F20105120C1B0CBFB2A84218BFD1
:1045B000B042A4B242EA0C0247EA030316D14FF616
:1045C000F775B1F80EC0B1F812800F8A8E881D40C1
:1045D00045EA0C0C4FF6FB734FF6FF4548EA070718
:1045E00025400CEA0303BCB233432C43848002838E
:1045F0008A6842630384BDE8F0017047038C23F0AE
:1046000010031B041B0C0384028CB1F800C02DE9BD
:10461000F00322F020028488038B8D894F881204D6
:10462000120C23F4E6431B0442EA05124FF48066A1
:1046300000251B0CC4F20106C4F2010543EA0C2359
:1046400042EA0712A84218BFB042A4B29BB292B28B
:1046500019D14FF67F76B1F80E90B1F81080B1F80D
:1046600004C04F8A16404FF2FF35254046EA09162E
:104670004FF6BF72324045EA880442EA0C1244EA1F
:10468000870492B2A4B2848003838B68836302841C
:10469000BDE8F003704700BF038C23F480731B0454
:1046A0001B0C0384028CB1F802C022F400722DE9C5
:1046B000F003120484888D89838B0F88120C42EAE0
:1046C000052223F0730300254FF480661B04C4F217
:1046D0000106C4F201051B0C42EA0C22A84218BFD5
:1046E000B042A4B243EA070392B219D14FF2FF7667
:1046F000B1F80E90B1F81080B1F804C04F8A16409E
:104700004CF6FF75254046EA09264FF6FF32324047
:1047100045EA081442EA0C2244EA071492B2A4B211
:10472000848083838B68C3630284BDE8F003704791
:10473000038C23F480531B041B0C0384028CB1F8FC
:1047400000C022F40052F0B4120484888D89838B57
:104750004F88120C42EA053223F4E64300254FF459
:104760008066C4F20105C4F201061B041B0CA842BA
:1047700018BFB04208BF0E8AA4B202BF4BF6FF7545
:10478000254045EA861443EA0C239BB208BFA4B235
:10479000848083838B6842EA073292B20364028486
:1047A000F0BC70474163704781637047C1637047D5
:1047B0000164704710B4048C0123A4B203FA01F31E
:1047C00024EA03030384038C02FA01F213439BB22D
:1047D000038410BC704700BF70B40589048B068C3D
:1047E00024F4407426F0220624F003043604360C28
:1047F00025F00705240432432D04240C2D0C44F429
:10480000807442EA0313294344F001049EB20181FB
:104810000483068470BC704770B5038ACA8823F489
:1048200040531B041B0C1343038283898A8804466C
:1048300008890D4623F4B0534989024323F00C0341
:104840001B040A431B0C92B21343A381A38AAA89B7
:1048500023F440731B041B0C84B01343A3826846EB
:10486000FFF7E4F94FF4A0524FF48053C4F2010370
:10487000C4F201029C4218BF9442A2890CBF039B60
:10488000029B12B2002A21DB286803EB830303EBAF
:1048900083038000B3FBF0F148F21F53A089C5F2F7
:1048A000EB13A3FB0152520900B216016425002844
:1048B00002FB151213DB12013232A3FB0253C3F3C6
:1048C000431333439BB2238104B070BD2A6803EBCA
:1048D000830303EB83035200B3FBF2F1DCE7D20066
:1048E0003232A3FB0213C3F342133343EAE700BFA0
:1048F000838929B923F400531B041B0C838170475F
:104900009BB243F400538381704700BFC905C90DB2
:10491000818070478088C005C00D704701F01F037B
:1049200010B4C1F342110124A14204FA03F30DD0E3
:1049300002290DD014302AB9026822EA0303036069
:1049400010BC7047026813430360F9E70C30F2E7CC
:104950001030F0E7038819420CBF00200120704797
:10496000C1F3421310B401F01F020124012B04FA19
:1049700002F416D0022B0CBF028A828A92B2224025
:1049800003880124090A04FA01F19BB219420CBF01
:1049900000200120002A0CBF002000F0010010BC04
:1049A0007047828992B22240EAE700BFBFF34F8F7F
:1049B0004FF46D42CEF200020423D168C0F2FA53E4
:1049C00001F4E0610B43D360BFF34F8FFEE700BFFC
:1049D00008B50368984708BD2DE9F0470568EB68FE
:1049E0006A6882B0002B00F09080AE68DFF84081EA
:1049F000B61A06EBD67646F2676302EB6606C6F297
:104A0000666383FB0623F217C8F80060C2EBA302BB
:104A10004149424F684612F055FF28686946FBF746
:104A200013FFE86830B10121FBF73EFC3C4B3B4FE4
:104A30000A221A6046F2676ADFF8F490C6F2666AE4
:104A40003B786BBBFCF7E4F8FCF722F9D8F80040A0
:104A50006B689C4202DBAB689C4202DDC9F8003007
:104A60001C46A642ECD0E86800284CD02146FBF753
:104A700043FCEB68002B46D08AFB0432E317C3EB00
:104A8000A2022549684612F01DFF28686946FBF717
:104A9000DBFE4620FCF74CFB3B782646002BD1D0B2
:104AA000E86828B10021FBF7FFFB1D4B01221A60CB
:104AB0003220FCF73DFB2B691A4ADFF8789042F868
:104AC000236000243C70C8F800402B684FF6FF724A
:104AD000DA872868FBF790FE2868FBF71DFF124B6A
:104AE00012495A68D9F808500C70043A5A603DB11E
:104AF000484649460322A847C9F80840C9F80C406F
:104B000002B0BDE8F0872246BBE7DFF824801646F6
:104B1000C8F800207CE700BFC4AA010801010020FA
:104B200028010020AC440020F03E002000010020BD
:104B300010010020140100202DE9F04F0568744F8A
:104B40002868DFF8E08183B0FBF73EFE0646286860
:104B5000FBF73CFE04462868FBF738FE033E00F1F5
:104B6000160340F21D52E11E00929BB2B0B289B210
:104B70004FF49672FCF7FAFE00233B604FF0FF3AC9
:104B8000B94698F80060002E67D1FCF741F846203E
:104B9000FCF7CEFAFCF77CF8AB683C68A34200F364
:104BA000A1805C1EC9F80040A245EAD02868FBF746
:104BB0000BFE83462868FBF709FE82462868FBF750
:104BC00005FE40F21D5600F11603AAF10301ABF1F8
:104BD0000300009680B289B24FF496729BB2FCF744
:104BE000C5FE002C11DD2868FBF7EEFD8246286823
:104BF000FBF7ECFD002301460AF105008DE84800B3
:104C000080B2444A444BFCF7BFFDAB68013BA34272
:104C10006EDC686804EB840A04EB4A0A504412F024
:104C200006FF06462868FBF7D1FD7608014606EB2D
:104C300086006A68384B06EB4006C6F1A00040F2D9
:104C40001D5E00268DE84040524480B2FCF79CFD7A
:104C500098F80060A246002E97D03220FCF768FA40
:104C60002E4A2B692E4E42F823A02E4B00241C7096
:104C70003C602868FBF7A8FD80462868FBF7A6FD86
:104C800007462868FBF7A2FDA8F1030800F1160308
:104C9000F91E1FFA88F089B24FF496729BB2009405
:104CA000FCF764FE0AEB8A076B68EA681E491F4836
:104CB0000AEB470A534412F005FE28681B49FBF72C
:104CC000C3FD28680121FBF723FE194AB36814705D
:104CD0002BB13046314603229847B460F46003B0EC
:104CE000BDE8F08F002CBCBFC9F8006034465BE71C
:104CF0002868FBF76BFD002340F21D5C01468DE840
:104D000008104FF48E700B4A034BFCF73DFD80E713
:104D100010010020C8AA01080C000020AC440020AB
:104D20001401002001010020CCAA01084044002009
:104D30000001002044D901082DE9F8430568DFF897
:104D4000889028681F4F0121FBF7AEFA28680021E0
:104D5000FBF7A8FA804699F80040286821461CBB5A
:104D6000FBF7A0FAFBF754FF21462868FBF79AFAF5
:104D70002B683E685B6A3C6006FB0306464531468D
:104D8000E9D02868FBF7B8FA95E801012146FBF75E
:104D900089FA01464046FBF773FE99F800402868FF
:104DA000B0462146002CDBD00021FBF77DFA686875
:104DB00040F21D51FBF76CFE034B00221A70BDE858
:104DC000F88300BF08010020010100202DE9F04F09
:104DD0009D4B1C7885B0002C00F01C81002002A99E
:104DE000FFF7FCF800254FF6FF7498499DF808205E
:104DF0009DF809309648DFF87C8212F063FD944AF2
:104E0000944B00942621A5200195FCF7BDFC284673
:104E100003A9FFF77DF99DF80F609DF80E209DF81E
:104E20000D308D498A4806F5FA66009612F04AFD63
:104E3000884B874A0094A5203C210195FCF7A4FCEF
:104E400001218648FBF78CFCBDEEC00A84498048EE
:104E500010EE102A12F036FDA52066217C4A7D4B0B
:104E60008DE83000FCF790FC47F6EF330093A52067
:104E70009E23842140F23B12FCF752FDD8F800300B
:104E8000D8F80420D21A9210052A00F0D980A2EB9B
:104E9000021149009631C2F105094D10B1FBF9F933
:104EA00062B3B33500221FFA89F9ADB214460FE0A0
:104EB0004FF6E073FCF716FED8F80420D8F800305F
:104EC0000134D11A4D44B4EBA10F2246ADB215D234
:104ED00053F82200FBF766FB2FB2064603469121EA
:104EE00008223846002EE3D1FCF7FCFD384691211C
:104EF00008224FF6FF73FCF753FDDDE7A520594F5D
:104F000047F6EF33009340F23B12BF230146FCF714
:104F100007FD7A683B68D31A9B100025042B4FF0DD
:104F200024090BD06FF0230202FB03F29032C3F18D
:104F300004095510B2FBF9F9002B68D0ADB205F1A8
:104F4000B3064FF00008C035DFF818B11FFA89F931
:104F5000B6B2ADB244464FF6FF7A17E0CDF800E0A6
:104F6000FCF704FDCDF800A03046AB212A46B9235A
:104F7000FCF7D6FC7A683B680134D31A4E444D44A2
:104F8000B4EBA30FA046B6B2ADB240D2224636492A
:104F9000364812F097FC3B6853F82800FBF73AFAC2
:104FA00086462A463046AB21B923BEF1000FD5D044
:104FB000DBF8003053F82800FBF72CFAAB21B923BB
:104FC00001282A4630460CD0CDF800A0FCF7A8FCFA
:104FD00030462A46CDF800A0AB21B923FCF7C6FC29
:104FE000C8E700230093B923FCF7C0FC30462A46EB
:104FF000AB21B923CDF800A0FCF792FCCDF800A0BE
:105000003046B3212A46B923FCF7B0FCB2E705B01D
:10501000BDE8F08F01221A70FBF772FE14490C4AAA
:10502000019403C9117121464FF6FF741060094BBA
:1050300000944FF48A70FCF7A7FBFBF74DFECDE61A
:105040004FF01E092DE700BF0C010020DCAA01086B
:10505000404400200C000020ECAA0108203F002062
:10506000FCAA0108103F0020C4AA0108F443002054
:10507000D4AA01089844002010B5084C03E040F27F
:105080008260FDF751FD2378002BF8D0FCF7A0FEDD
:10509000FFF79CFEFCF7B0FEF1E700BF0C0100201B
:1050A0002DE9F04F002283B001238DE80C00C04EA3
:1050B000C04DC14CDFF80483DFF804B3914640F2E1
:1050C000F800C2F200000378002B55D03368002BA3
:1050D00052D043F60471C2F2000191E80C00C2EB19
:1050E000030E5FEAAE0E00F09A8140F2FC03C2F2BA
:1050F0000003176819683B688B420BD0002305E05A
:1051000052F8047F30683968814203D00133734517
:10511000F6D100273B7A022B00F2E9802B686A68FF
:10512000D21A920800F002810022914609E06A68D2
:105130002B6809F10109D11AB9EBA10F4A4680F099
:10514000F58053F822004FEA820AFBF745FA7B68A4
:105150009842ECD1FCF73CFE397A2B68022900F02A
:105160003181D1F1010138BF002153F80A00FBF76A
:105170001BFAFCF741FEDAE7009FB9F1000FD4BF3C
:10518000002707F0010744F2E032C2F20002137870
:1051900073B343F6C060C2F20000037843B394E8EF
:1051A0000C009B1A9B0810D000218A4652F821005F
:1051B00098F80010FBF7FAF894E80C000AF1010ADD
:1051C0009B1ABAEBA30F5146F0D344F2E031C2F27E
:1051D000000143F628720023C2F2000243F6007079
:1051E0000B70C2F20000012313704FF4FA730360D6
:1051F00043F61C71C2F200010B7873B345F64442CA
:10520000C2F20002137843B394E80C009B1A9B0887
:1052100010D000218A4652F821009BF80010FBF7BD
:10522000C5F894E80C000AF1010A9B1ABAEBA30F27
:105230005146F0D343F61C70C2F2000043F62871C9
:105240000023C2F2000143F600720370C2F20002B2
:1052500001230B704FF4FA73136044F2F130C2F281
:105260000000037843B144F2A841C2F200010B6888
:10527000002B6ADD963B0B605FB3019A4FF48050C0
:10528000C4F202004FF40041002A57D0FEF79CFC04
:105290000023019343F62870C2F200000378A3B103
:1052A00043F60071C2F200014FF480500B68002BEE
:1052B0006BDD43F60072C2F20002963BC4F20200BC
:1052C0004FF480411360FEF77FFC3220FDF72CFC89
:1052D000F5E6009BB9F1000F14BF002303F00103B2
:1052E000002BD7D0012300970193B946D2E7032BB7
:1052F00074D0042B1AD17B68C3B943F6287043F6E7
:105300000071C2F20000C2F2000101234CF25032DF
:105310000A60037044F2F13144F2A840C2F2000086
:10532000C2F2000147F2305202600B7001270023E5
:105330003360009701974FF0020924E7FEF746FC1F
:10534000012209F1FF390192A4E744F2F130C2F2DF
:10535000000095E80C000021017044F2A8409B1A5F
:10536000C2F200009B08016086D08A4652F82100F4
:105370000021FBF719F995E80C000AF1010A9B1AC4
:10538000BAEBA30F5146F1D376E743F60072C2F2AF
:1053900000020023136043F62872C2F20002C4F236
:1053A00002004FF480411370FEF710FC8DE700BF40
:1053B000FC00002098440020103F0020A44400205E
:1053C0008844002053F80AA05046FBF7EBF880F021
:1053D0000101C9B25046FBF7E7F8CAE623686268E4
:1053E000D21A9208A2D04FF0000AD14606E02368F4
:1053F0006268D21AB9EBA20FCA4697D253F82A00B4
:10540000FBF794F87B68984209F10109EFD1236812
:105410004FF0FF3153F82A00FAF7C8FFE7E7774665
:1054200078E600BF012A08BF016002D003D2064B14
:10543000036000207047022AFBD10B680028F8D0D7
:1054400003600020704700BFA0A6010810B5044605
:10545000FDF70AFA20B92046BDE8104012F00AB95B
:105460002046BDE81040FCF7A5BD00BF84B0F8B5EC
:105470000646002007ADB0601C2085E80E00FFF74F
:10548000E5FF07460FCD3C460FC495E807000A4BE1
:1054900084E80700F360094B3760B3603046BDE82D
:1054A000F84004B07047B3681BB130463146032260
:1054B00098470AF093FB00BF9DED0008555C00087B
:1054C00084B0F8B50646002007ADB0601C2085E822
:1054D0000E00FFF7BBFF07460FCD3C460FC495E813
:1054E00007000A4B84E80700F360094B3760B3609C
:1054F0003046BDE8F84004B07047B3681BB1304691
:105500003146032298470AF069FB00BF31EB0008DF
:10551000195E000870B5324B5A688AB0043A06AC7E
:105520005A60FBF74BFCFBF7D7FB2E49224603A83A
:1055300010F06EFA039A2C4B52F80C1C01EB810010
:1055400001EB4000C0F5A07000214FF6FF750095FB
:10555000019180B2FCF718F9244A01231846137010
:1055600000230893FFF772FF069094E80300204B96
:1055700004AA82E8030093E803009D68DE680895AA
:1055800084E8030092E803001A4A09969A601A4ACE
:1055900083E80300DA601DB1204621460322A847B4
:1055A000039B164AA3F10C00904201D10AB070BDD2
:1055B00053F8042C511E002A43F8041CF6DC214643
:1055C00010F0E4F9F2E7089B1BB1204621460322C4
:1055D000984703A810F0EAF90AF000FBF9E700BFCA
:1055E000F03E002008AB01080C0000200001002064
:1055F000140100208D6000082D6A0008585C00200E
:1056000084B0F8B50646002007ADB060182085E8E4
:105610000E00FFF71BFF07460FCD3C460FC495E871
:1056200003000A4B84E80300F360094B3760B36062
:105630003046BDE8F84004B07047B3681BB130464F
:105640003146032298470AF0C9FA00BF11E9000861
:105650005D63000810B50446FDF706F920B9204641
:10566000BDE8104012F00EB82046BDE81040FCF72F
:10567000FFBC00BF10B50446032A06D8DFE802F0DD
:10568000110D07020068FFF7E5FF002010BD0120A3
:10569000FFF7DCFE2060002010BD0B6803600020D7
:1056A00010BD024B0360002010BD00BF08CA0108F6
:1056B00038B50446032A06D8DFE802F014100702C2
:1056C0000068FFF7C7FF002038BD0D680420FFF712
:1056D000BDFE2B6803602060002038BD0B680360AE
:1056E000002038BD014B0360002038BD30AA0108FE
:1056F00038B50446032A06D8DFE802F01410070282
:105700000068FFF7A7FF002038BD0D680420FFF7F1
:105710009DFE2B6803602060002038BD0B6803608D
:10572000002038BD014B0360002038BD1CC40108B7
:1057300038B50446032A06D8DFE802F01410070241
:105740000068FFF787FF002038BD0D680420FFF7D1
:105750007DFE2B6803602060002038BD0B6803606D
:10576000002038BD014B0360002038BD20C7010870
:1057700010B50446032A06D8DFE802F0110D07022F
:105780000068FFF767FF002010BD0120FFF75EFEF5
:105790002060002010BD0B680360002010BD024B8C
:1057A0000360002010BD00BF34A9010838B50446CD
:1057B000032A06D8DFE802F0141007020068FFF79A
:1057C00049FF002038BD0D680420FFF73FFE2B681D
:1057D00003602060002038BD0B680360002038BDE6
:1057E000014B0360002038BD44A9010838B50446C8
:1057F000032A06D8DFE802F0141007020068FFF75A
:1058000029FF002038BD0D680420FFF71FFE2B681C
:1058100003602060002038BD0B680360002038BDA5
:10582000014B0360002038BD3CA9010838B504468F
:10583000032A06D8DFE802F0141007020068FFF719
:1058400009FF002038BD0D680420FFF7FFFD2B681D
:1058500003602060002038BD0B680360002038BD65
:10586000014B0360002038BD54C3010838B504461D
:10587000032A06D8DFE802F0141007020068FFF7D9
:10588000E9FE002038BD0D680420FFF7DFFD2B681E
:1058900003602060002038BD0B680360002038BD25
:1058A000014B0360002038BD80C6010838B50446AE
:1058B000032A06D8DFE802F0141007020068FFF799
:1058C000C9FE002038BD0D680420FFF7BFFD2B681E
:1058D00003602060002038BD0B680360002038BDE5
:1058E000014B0360002038BD60C9010838B504468B
:1058F000032A06D8DFE802F0141007020068FFF759
:10590000A9FE002038BD0D680420FFF79FFD2B681D
:1059100003602060002038BD0B680360002038BDA4
:10592000014B0360002038BDF8A6010838B50446D5
:10593000032A06D8DFE802F0141007020068FFF718
:1059400089FE002038BD0D680420FFF77FFD2B681D
:1059500003602060002038BD0B680360002038BD64
:10596000014B0360002038BDE8C3010810B50446B0
:10597000032A06D8DFE802F0110D07020068FFF7DE
:1059800069FE002010BD0120FFF760FD20600020AF
:1059900010BD0B680360002010BD024B03600020A7
:1059A00010BD00BF18C7010810B50446032A06D869
:1059B000DFE802F0110D07020068FFF74BFE002040
:1059C00010BD0120FFF742FD2060002010BD0B68D4
:1059D0000360002010BD024B0360002010BD00BF1B
:1059E0004CC3010838B50446032A06D8DFE802F0A4
:1059F000141007020068FFF72DFE002038BD0D6867
:105A00000420FFF723FD2B6803602060002038BDD1
:105A10000B680360002038BD014B0360002038BDD7
:105A200084C2010838B50446032A06D8DFE802F02C
:105A3000141007020068FFF70DFE002038BD0D6846
:105A40000420FFF703FD2B6803602060002038BDB1
:105A50000B680360002038BD014B0360002038BD97
:105A600010C6010838B50446032A06D8DFE802F05C
:105A7000141007020068FFF7EDFD002038BD0D6827
:105A80000420FFF7E3FC2B6803602060002038BD92
:105A90000B680360002038BD014B0360002038BD57
:105AA000E8A6010810B50446032A06D8DFE802F08C
:105AB000110D07020068FFF7CDFD002010BD012089
:105AC000FFF7C4FC2060002010BD0B6803600020BD
:105AD00010BD024B0360002010BD00BF88AA010862
